:020000040000fa
:080000000002040000000000f2
:020000040000fa
:04000800da05000015
:020000040000fa
:04000c00da05000011
:020000040000fa
:04001000da0500000d
:020000040000fa
:04001400da05000009
:020000040000fa
:04001800da05000005
:020000040000fa
:04001c00da05000001
:020000040000fa
:04002000da050000fd
:020000040000fa
:04002400da050000f9
:020000040000fa
:04002800da050000f5
:020000040000fa
:04002c00da050000f1
:020000040000fa
:04003000da050000ed
:020000040000fa
:04003400da050000e9
:020000040000fa
:04003800da050000e5
:020000040000fa
:04003c00da050000e1
:020000040000fa
:04004000da050000dd
:020000040000fa
:04004400da050000d9
:020000040000fa
:04004800da050000d5
:020000040000fa
:04004c00da050000d1
:020000040000fa
:04005000da050000cd
:020000040000fa
:04005400da050000c9
:020000040000fa
:04005800da050000c5
:020000040000fa
:04005c00c8020000d6
:020000040000fa
:04006000da050000bd
:020000040000fa
:04006400da050000b9
:020000040000fa
:04006800da050000b5
:020000040000fa
:04006c00da050000b1
:020000040000fa
:04007000da050000ad
:020000040000fa
:04007400e80300009d
:020000040000fa
:04007800da050000a5
:020000040000fa
:04007c00da050000a1
:020000040000fa
:04008000da0500009d
:020000040000fa
:04008400da05000099
:020000040000fa
:04008800da05000095
:020000040000fa
:04008c00da05000091
:020000040000fa
:04009000da0500008d
:020000040000fa
:04009400da05000089
:020000040000fa
:04009800500500000f
:020000040000fa
:04009c00da05000081
:020000040000fa
:0400a0001004000048
:020000040000fa
:0400a4007a040000da
:020000040000fa
:0400a800da05000075
:020000040000fa
:0400ac00da05000071
:020000040000fa
:0400b000da0500006d
:020000040000fa
:0400b400da05000069
:020000040000fa
:0400b800da05000065
:020000040000fa
:0400bc00da05000061
:020000040000fa
:0400c000da0500005d
:020000040000fa
:0400c400da05000059
:020000040000fa
:0400c800da05000055
:020000040000fa
:0400cc00da05000051
:020000040000fa
:0400d000da0500004d
:020000040000fa
:0400d400da05000049
:020000040000fa
:0400d800da05000045
:020000040000fa
:0400dc00da05000041
:020000040000fa
:0400e000da0500003d
:020000040000fa
:0400e400da05000039
:020000040000fa
:0400e8003e050000d1
:020000040000fa
:0400ec00da05000031
:020000040000fa
:0400f000da0500002d
:020000040000fa
:0400f400da05000029
:020000040000fa
:0400f800da05000025
:020000040000fa
:0400fc00da05000021
:020000040000fa
:04010000da0500001c
:020000040000fa
:04010400da05000018
:020000040000fa
:04010800da05000014
:020000040000fa
:04010c00da05000010
:020000040000fa
:04011000da0500000c
:020000040000fa
:04011400da05000008
:020000040000fa
:04011800da05000004
:020000040000fa
:04011c00da05000000
:020000040000fa
:04012000da050000fc
:020000040000fa
:04012400da050000f8
:020000040000fa
:04012800da050000f4
:020000040000fa
:04012c00da050000f0
:020000040000fa
:04013000da050000ec
:020000040000fa
:04013400da050000e8
:020000040000fa
:04013800da050000e4
:020000040000fa
:04013c00da050000e0
:020000040000fa
:04014000da050000dc
:020000040000fa
:04014400da050000d8
:020000040000fa
:04020800da05000013
:020000040000fa
:04020c00da0500000f
:020000040000fa
:04021000da0500000b
:020000040000fa
:04021400da05000007
:020000040000fa
:04021800da05000003
:020000040000fa
:04021c00da050000ff
:020000040000fa
:04022000da050000fb
:020000040000fa
:04022400da050000f7
:020000040000fa
:04022800da050000f3
:020000040000fa
:04022c00da050000ef
:020000040000fa
:04023000da050000eb
:020000040000fa
:04023400da050000e7
:020000040000fa
:04023800da050000e3
:020000040000fa
:04023c00da050000df
:020000040000fa
:04024000da050000db
:020000040000fa
:04024400da050000d7
:020000040000fa
:04024800da050000d3
:020000040000fa
:04024c00da050000cf
:020000040000fa
:04025000da050000cb
:020000040000fa
:04025400da050000c7
:020000040000fa
:04025800da050000c3
:020000040000fa
:04025c00da050000bf
:020000040000fa
:04026000da050000bb
:020000040000fa
:04026400da050000b7
:020000040000fa
:04026800da050000b3
:020000040000fa
:04026c00da050000af
:020000040000fa
:04027000da050000ab
:020000040000fa
:04027400da050000a7
:020000040000fa
:04027800da050000a3
:020000040000fa
:04027c00da0500009f
:020000040000fa
:04028000da0500009b
:020000040000fa
:04028400da05000097
:020000040000fa
:04028800da05000093
:020000040000fa
:04028c00da0500008f
:020000040000fa
:04029000da0500008b
:020000040000fa
:04029400da05000087
:020000040000fa
:04029800da05000083
:020000040000fa
:04029c00da0500007f
:020000040000fa
:0402a000da0500007b
:020000040000fa
:0402a400da05000077
:020000040000fa
:0402a800da05000073
:020000040000fa
:0402ac00da0500006f
:020000040000fa
:0402b000da0500006b
:020000040000fa
:0402b400da05000067
:020000040000fa
:0402b800da05000063
:020000040000fa
:0402bc00da0500005f
:020000040000fa
:0402c000da0500005b
:020000040000fa
:0402c400da05000057
:020000040000fa
:0402c800da05000053
:020000040000fa
:0402cc00da0500004f
:020000040000fa
:0402d000da0500004b
:020000040000fa
:0402d400da05000047
:020000040000fa
:0402d800da05000043
:020000040000fa
:0402dc00da0500003f
:020000040000fa
:0402e000da0500003b
:020000040000fa
:0402e400da05000037
:020000040000fa
:0402e800da05000033
:020000040000fa
:0402ec00da0500002f
:020000040000fa
:0402f000da0500002b
:020000040000fa
:0402f400da05000027
:020000040000fa
:0402f800da05000023
:020000040000fa
:0402fc00da0500001f
:020000040000fa
:04030000da0500001a
:020000040000fa
:04030400da05000016
:020000040000fa
:04030800da05000012
:020000040000fa
:04030c00da0500000e
:020000040000fa
:04031000da0500000a
:020000040000fa
:04031400da05000006
:020000040000fa
:04031800da05000002
:020000040000fa
:04031c00da050000fe
:020000040000fa
:04032000da050000fa
:020000040000fa
:04032400da050000f6
:020000040000fa
:04032800da050000f2
:020000040000fa
:04032c00da050000ee
:020000040000fa
:04033000da050000ea
:020000040000fa
:04033400da050000e6
:020000040000fa
:04033800da050000e2
:020000040000fa
:04033c00da050000de
:020000040000fa
:04034000da050000da
:020000040000fa
:04034400da050000d6
:020000040000fa
:10040000af8f20000e7f24000e0188000000000046
:10041000000020000000e000020032000001200087
:100420002002880014000700e40107000000e0003b
:1004300003003a0000d8200001002000020037002d
:100440000000200001002000810f70000100320038
:1004500014000700000020000000e000020032004d
:1004600000000200000000008a0c020000000000f2
:100470000040da000000fe004440a9000007200010
:100480000000e0000300320000002000a00188000e
:100490004440a800000006008a1f78008b1f7800e7
:1004a0000000060091018800800478000000eb0045
:1004b0001a003700e284440032a0b4009905ba0063
:1004c000e284440032a0b4009906ba00e2844400f9
:1004d00032a0b4000006eb00476fde00fd07b2005b
:1004e000636ce10003003a00ebff07000000eb0043
:1004f0000a003700606ce10004003a00005deb0088
:100500008b05e900fdff3e00040037006168e10053
:10051000010032000086eb000b00070019c7ba008b
:100520001905ba000e04e00003003a000a00e000da
:10053000e0ff3a0000000600fe07b2009e018800be
:100540008a047800f5ff3700395dba008b05e900b1
:100550000c003200295dba008b05e900080032006a
:100560000c00e00003003a00e284440032a0b40032
:10057000f5ff370019ddba008b05e900faff3a00f4
:100580008904e800e184440032a0b40000000600c1
:10059000809fbe00829fbe000600fa00504080008f
:1005a0006140800061004000e080480050408800c9
:1005b0006140880040198000004078007f40600062
:1005c0000080fb00e50f50000a003200e50f5000ec
:1005d00003003c00e40f50001b0032005c003700b9
:1005e000e80f50002e003200e90f500042003200a8
:1005f0005700370000802000900078002107980005
:10060000001880008000eb002e019000c211dd0078
:1006100062822000028141000089be0041198000f1
:1006200000fe2f00008060000020a000401988001c
:1006300000802000100078008000e800008020008a
:1006400001087800420037000080200090009000f0
:1006500021079800001880008000eb002e01900018
:1006600068014100c211dd00628220000281410068
:100670000089be004119800000fe2f00008060004c
:100680000030a00040198800008020001000900079
:100690008000e80000802000110098002c00370046
:1006a00000802000a0009000210798000018800022
:1006b0008000eb002e01900070014100c211dd00ae
:1006c00062822000028141000089be004119800041
:1006d00000fe2f00008060009000b30040198800e9
:1006e00000802000200090008000e80000802000b2
:1006f000210098001600370000802000b000900014
:1007000021079800001880008000eb002e01900067
:1007100078014100c211dd006282200002814100a7
:100720000089be004119800000fe2f00008060009b
:100730005000b30040198800008020003000900075
:100740008000e800008020003100980000000000d8
:1007500010002000100798000000eb00000f780048
:100760000b003700018020001e00780000004000d0
:100770000080400010007800e80f500003003200b5
:100780000000eb0010079800040037001e0fe8007f
:100790001e007800e30f5000f2ff34001e009000ae
:1007a0000000e0000400320021e3a9001000200056
:1007b00040408800010037002023a80085a0a90040
:1007c0000080fa004f01be004f00be00004006004e
:1007d0003600f800809fbe00829fbe00849fbe004e
:1007e000869fbe000000fa00a116800000002200d3
:1007f000008060000000e00001003a00a004070053
:100800008660a9000080fa004f03be004f02be00c0
:100810004f01be004f00be003600f9000040060048
:100820003600f800809fbe00829fbe00849fbe00fd
:10083000869fbe000200fa00b0118000004f7800d1
:100840001e00fb0001052000810f50001c0032003b
:1008500001052000810f500007003c0031042000fa
:10086000810f50001400320091042000810f5000cd
:100870000b0032001400370091062000810f500059
:100880000700320001072000810f50000c003200e9
:1008900031062000810f5000070032000a003700a7
:1008a000570207001100200080622800d6040700cc
:1008b000cb040700040037002fe1a8000200370036
:1008c0002fe1a900000000009e407800508d20001c
:1008d0000148780087c0a9000080fa004f03be00dd
:1008e0004f02be004f01be004f00be003600f900af
:1008f00000400600809fbe00821f78000200fa00c0
:10090000d0408000e10f500021003200e10f500084
:1009100011003900e20f500037003200e30f5000a1
:1009200048003a00e0408000c1662800e1407800bd
:100930008100fb00a11188000000e800e040880071
:10094000e0408000e40f500040003a001c28ef0017
:100950001a28ef0044003700e040800011672800ab
:10096000e14078008100fb00a11188000000e80050
:10097000e0408800e0408000e30f500035003a007e
:100980001c28ef0010002000d040880036003700ff
:10099000f1408000e0408000c408dd00808040001d
:1009a000628b2000e2c078008180fb00a1118800ea
:1009b0000000e800e0408800e0408000f00f5000b8
:1009c00026003a001c28ef00f04080000000e800fc
:1009d000f0408800f0408000e20f500003003a0031
:1009e0001a28ef001e28ef001f003700200020000b
:1009f000d04088001c003700e0408000004f7800a5
:100a00000000e800e04088001e4078000004e0009c
:100a100003003a00d0002000a01188001200370027
:100a20001e407800e14f50000e003a00a000200068
:100a3000a011880010002000d04088001c28ef0082
:100a40000900370000000000070037000000000028
:100a50000500370000000000030037000000000020
:100a6000010037000000000087e0a9000080fa00c4
:100a70004f0178004f00be0000400600801f780044
:100a80000000fa00804080006a004000804088003a
:100a90008a00a9000080fa004f007800004006009c
:100aa0003600f800809fbe00829fbe00849fbe007b
:100ab000869fbe000000fa000ec8bf000080fb0049
:100ac000e10f500010003200e10f500003003c0025
:100ad0000000e000060032002e003700e20f500058
:100ae00016003200e30f50001a00320029003700d0
:100af00000c8b300e90207001828ef0010c0b300d7
:100b00000ee8b70023003700c0408000618b200052
:100b100061407800f2020700c04080000000e80059
:100b2000c0408800c0408000f00f500016003a001e
:100b300020c0b3000ee8b7001600370000ccb300a9
:100b4000d60207001828ef0030c0b3000ee8b70047
:100b500010003700c040800070004000618b200012
:100b600061407800de020700c04080000000e8001d
:100b7000c0408800c0408000f00f500004003a00e0
:100b80000e68ef000300370000000000010037008e
:100b9000000000008780a9000080fa004f03be001b
:100ba0004f02be004f01be004f00be003600f900ec
:100bb000004006000040da000000fe0000000500d2
:100bc0006022b800060220000000d0008180d20020
:100bd0000482d2008582d2000000a00002025200ee
:100be00083825a00030031000202420083824a00dd
:100bf0000000a1000603e900f3ff3a000000060030
:0c0c0000efff07000400be00000006002b
:020000040000fa
:100c0c002d2d00002d200000507500006c7300008d
:100c1c006120000053330000202000002d2d000027
:100c2c00002d00002d2d0000204f0000435000002f
:100c3c00574d00005f760000312000002d2d000084
:100c4c002d000000437200006f6e00006f3a000030
:100c5c0020300000303a0000303000002c30000012
:100c6c0020200000005000003a200000303000002e
:100c7c003030000020200000543a000020300000ea
:100c8c003030000030000000583a000020300000e6
:100c9c003030000030200000205900003a200000c5
:100cac003030000030300000002000002020000018
:100cbc00202000002044000055540000593a000048
:100ccc002030000030300000300000001b5b0000c2
:100cdc00324a0000001b00005b48000000000000ce
:020000040000fa
:100cec000000fa002023ef0001198000000e200004
:100cfc0001007000001988002223ef002423ef006c
:100d0c002119800000f021000100700020198800da
:100d1c0030c0b30024e3b7003223ef002623ef00ea
:100d2c002823ef004119800000fe2f000080600096
:100d3c005000b300401988002e23ef003023ef0041
:100d4c000080eb00501988000080eb0060198800cf
:100d5c002ca3a9002c83a9002d03a9002d23a900e5
:100d6c0085a0a90095a0a8001119800030fc2f00c7
:100d7c00008060001019880021e3a8000080fa00b0
:100d8c00000006000400fa000000eb00000f7800e1
:100d9c001f0037000000eb00100798000c00370014
:100dac001e007800c300dd001e0090000080400093
:100dbc00c200dd0060822000008140006000b800ad
:100dcc000089be001e0090000000e800100798008b
:100ddc001e009000e70f5000f1ff34001e00780059
:100dec00c200dd00608a2000008140006000b80075
:100dfc000089be00018020001e0078000000400029
:100e0c00008040008000eb00010878001e0fe80015
:100e1c001e007800e30f5000deff34000a28ef00bc
:100e2c000c28ef002023a8000080fa000000060028
:100e3c000200fa000000eb00000f78000d003700f4
:100e4c001e007800c200dd00608a20000081400096
:100e5c006000b8000089be00018020001e007800f0
:100e6c0000004000008040008000eb00010878008a
:100e7c001e0fe8001e007800e30f5000f0ff340056
:100e8c000828ef0021e3a8002023a8000080fa0026
:100e9c00000006000400fa000000eb00000f7800d0
:100eac00320037000000eb001007980017003700e5
:100ebc001e007800c200dd00608a20000080400027
:100ecc001002be001e007800c300dd001e00900062
:100edc0000804000c200dd006082200000804000e5
:100eec001000be0004004000858048001e027800ff
:100efc00c222dd00648a200004824200008abe0007
:100f0c001e0090000000e800100798001e009000e2
:100f1c00e70f5000e6ff34001e007800c200dd0031
:100f2c00608a2000008040001000be00e00f5000de
:100f3c00e08f580002003d0067004000e080480050
:100f4c004d0add004301de0002017200c389de00a0
:100f5c000200be001e027800c222dd00648a20005e
:100f6c0004824200008abe001e0fe8001e007800ba
:100f7c00e30f5000cbff34000000eb00000f7800b3
:100f8c000d0037001e007800c200dd00608a2000d2
:100f9c00008040001000be00638d20001e01780010
:100fac004211dd00028241000001be000400780005
:100fbc00620107001e0fe8001e007800e30f5000ce
:100fcc00f0ff340020418000e10f5000030032009c
:100fdc00e20f50002200320042003700608d2000ea
:100fec0090407800908b200001487800708d200094
:100ffc0090407800a08b200001487800808d200064
:10100c0090407800b08b200001487800908d200033
:10101c0090407800c08b200001487800a08d200003
:10102c0090407800208c200001487800b08d200082
:10103c0090407800308c200001487800c08d200052
:10104c0090407800408c200001487800d08d200022
:10105c0090407800508c2000014878002100370027
:10106c00e08d200090407800908b200001487800a3
:10107c00f08d200090407800a08b20000148780073
:10108c00008e200090407800b08b20000148780042
:10109c00108e200090407800c08b20000148780012
:1010ac00208e200090407800208c20000148780091
:1010bc00308e200090407800308c20000148780061
:1010cc00408e200090407800408c20000148780031
:1010dc00508e200090407800508c20000148780001
:1010ec00000000000080fa00000006000000fa007a
:1010fc001021ef000621ef00400d2300600888004e
:10110c0081088000f0fc2f00008060000050a000df
:10111c008008880084e0a90094e0a90011e1a800ef
:10112c000080fa00000006000000fa000a21ef001f
:10113c00f0c329007008880091088000f0fc2f0093
:10114c0000806000900888001221a90012c1a9003b
:10115c0013e1a8009500a9008500a9000080fa0001
:10116c00000006000000fa001821ef00f0c329006f
:10117c00e008880001098000f0fc2f00008060006e
:10118c00000988002021a90020c1a90021e1a800a4
:10119c009780a8008780a9000080fa000000060054
:1011ac000000fa002621ef00f0342c0050098800d2
:1011bc0071098000f0fc2f00008060000040a0004e
:1011cc00700988002e21a9002ec1a9002fe1a800ca
:1011dc009a00a8008a00a9000080fa00000006000e
:1011ec000000fa003c21a9003cc1a9000080fa00d3
:1011fc00000006000000fa001028ef001228ef0093
:10120c001428ef001628ef002621ef000080fa00ca
:10121c00000006000400fa001007980010002000df
:10122c00000f7800e1098000f0fc2f0000806000c6
:10123c00e00988001e0078000080fa00000006001b
:10124c000600fa00200798003421ef00ae00900051
:10125c00800220000088b90000007800000f7800a0
:10126c001e007800ebff0700100798009e00780026
:10127c001e00900000017800110009008280d80047
:10128c000000e900c00988003de1a8000000000052
:10129c0050048000700060000000e000fcff320091
:1012ac003de1a9008a80a9000080fa000000060038
:1012bc000600fa0020079800ae00900040062000bf
:1012cc00808f500001003600ffff37003421ef0003
:1012dc00ae00900000c429000088b900000078001e
:1012ec00000f78001e007800caff07001007980056
:1012fc009e0078001e00900000017800110009008b
:10130c008280d8000000e900c00988003de1a800f7
:10131c000000000050048000700060000000e0003d
:10132c00fcff32003de1a9008a80a9000080fa0090
:10133c00000006000600fa008140800040062000f4
:10134c00808f500057003a00904080000000e80069
:10135c00904088001028ef0020168000610060008b
:10136c0000f0a7000000ea000000e9004f00de00da
:10137c00004078000080fb006100600021168000b6
:10138c000100a1000100700020168800914080002f
:10139c006400470045000700de409000308d2000bf
:1013ac000148780090408000ea0f50003d003a0060
:1013bc00a04080000000e800a04088001228ef0048
:1013cc00201680006400600000f0a7000000ea0016
:1013dc000000e9004f00de00004078000080fb00b8
:1013ec00610060004200dd00211680000120a10098
:1013fc0001007000201688000a28ef000c28ef006e
:10140c00a1408000c0032000808f50001c003a00d7
:10141c00b04080000000e800b04088001428ef00c5
:10142c00201680007000600000f0a7000000ea00a9
:10143c000000e9004f00de00004078000080fb0057
:10144c00610060004400dd00211680000140a10015
:10145c000100700020168800b040800080007800e9
:10146c000e007800110007009e407800d08c200000
:10147c00014878009e409000e08c200001487800e4
:10148c00a14080000e80e80008000700ae409000ec
:10149c00008d200001487800be409000108d200087
:1014ac00014878000080fa00000006000600fa00ef
:1014bc001007980021079800ae009000300620001d
:1014cc00808f500001003600ffff3700ae00900007
:1014dc00d0cc2c000008b8004308de00004f780088
:1014ec001e80fb00a18e2000614f78001e00900032
:1014fc001e4878001e0090000000e80010079800bd
:10150c002e019000d0cc2c000010b8004308de0057
:10151c006a00b9000000780000005100004f78000c
:10152c001e80fb00a18e2000614f78001e009000f1
:10153c001e4878000080fa00000006000800fa003f
:10154c001007980022079800330798002e0190008e
:10155c00be019000f03f200001002000800f5100e0
:10156c00818f590001003600ffff37002e009000dc
:10157c00004f78002e009000be009000823e2000ac
:10158c00030020008bfd0700004f78001e80fb003d
:10159c00a18e2000614f78001e0090001e4878003c
:1015ac001e0090000000e800100798002e0090002c
:1015bc00be00900042062000030020007dfd0700c5
:1015cc00004f78001e81fb00d0cc2c000010b8001e
:1015dc004308de006a00b9000000780000005100ea
:1015ec00004f78001e80fb00a18e2000614f780018
:1015fc001e0090001e4878001e0090000000e800bd
:10160c00100798002e009000be009000a200200051
:10161c000300200067fd0700004f78001e81fb00cf
:10162c00d0cc2c000010b8004308de006a00b900d2
:10163c000000780000005100004f78001e80fb0075
:10164c00a18e2000614f78001e0090001e4878008b
:10165c001e0090000000e800100798002e0090007b
:10166c00be009000a20020000300200061fd0700d6
:10167c00004f78001e80fb00a18e2000614f780087
:10168c001e0090001e4878000080fa000000060042
:10169c000200fa00004f7800d6a2a900cbe2a90004
:1016ac00e116800000f02f0000806000e01688003a
:1016bc009e00fb00e016800001007000e016880020
:1016cc00d682a800d682a900d6a2a8000080fa0073
:1016dc00000006000200fa00004f7800d6a2a90014
:1016ec00cbe2a800e116800000f02f000080600023
:1016fc00e01688009e00fb00e016800001007000e0
:10170c00e0168800d682a800d682a900cbe2a900f8
:10171c00d6a2a8000080fa00000006000000fa0023
:10172c00f0002000e2fe0700e116800000f02f0020
:10173c0000806000e0168800d6a2a900cbe2a900c8
:10174c00d682a900c116800000f02f000080600036
:10175c00c0168800d2a2a900c7e2a900d282a900b3
:10176c0080c3b300caff070050002000d0fe070062
:10177c0080c3b300c6ff070040062000b0fe070080
:10178c0080c3b300c2ff070080022000acfe07003c
:10179c0080c3b300beff070080022000a8fe070034
:1017ac00c0c0b300baff070080022000a4fe0700ef
:1017bc0060c0b300b6ff070080022000a0fe070047
:1017cc000080fa00000006000400fa00000f780008
:1017dc0021479800090037001e007800104078005f
:1017ec001e0fe800bbff07008002200094fe0700dc
:1017fc002e4090000040e900204798002e409000b9
:10180c000004e000f4ff3a000080fa00000006003b
:10181c000000fa0000c8b3009dff07008002200002
:10182c0087fe07000080fa00000006000000fa00a6
:10183c0000ccb30096ff07008002200080fe07005a
:10184c000080fa00000006000000fa008421ef007e
:10185c000141800010418000008040000000d10058
:10186c00100c8800100c8000000c8800210c8000eb
:10187c0080ff2f00008060006000b300200c880007
:10188c000080fa00000006000000fa00100c800036
:10189c008000eb00628d2000700241000001be0050
:1018ac000400780025ff070020418000e30f500062
:1018bc0012003a00608e200090407800208c2000ae
:1018cc0001487800708e200090407800308c200009
:1018dc0001487800808e200090407800408c2000d9
:1018ec0001487800908e200090407800508c2000a9
:1018fc0001487800000000000100370000000000e3
:10190c000080fa00000006000000fa002800070022
:10191c00cf000700d3000700c0e2a8007fff07003c
:10192c0099000700eefc0700c7ff0700effd07005a
:10193c000cfe07002afe07008000eb0070612800f7
:10194c00ae0007001100200060602800ab0007000b
:10195c0000000000a1168000000420000080600040
:10196c000000e000fbff3a008000eb0090632800d1
:10197c00a200070011002000806228009f000700d1
:10198c00340007001bfe070005fe0700fdfc0700e6
:10199c0068fe0700404080000000e00002003200ba
:1019ac003cfd070022fd0700b7ff0700f8ff3700da
:1019bc000000fa0060022000303a8800213a8000d2
:1019cc00f0f32f0000806000203a8800213a80005c
:1019dc0000fe2f0000806000203a880040a7a9007c
:1019ec003200200080072000a10920003374200061
:1019fc0080497800814978008249780012002000e3
:101a0c0060042000710520002374200080497800b8
:101a1c00814978008249780000000000113a80006a
:101a2c00000027008080600000002300808f5000a1
:101a3c00faff3a0000000000113a8000000220007a
:101a4c00008060000000e000fbff32000080fa0024
:101a5c00000006000000fa0062e0a8006200a80086
:101a6c006260a8009660a8008660a9000080fa0059
:101a7c00000006000000fa00204180000000e80091
:101a8c002041880020418000e30f50000200340008
:101a9c00100020002041880020418000e20f5000ff
:101aac0008003200e30f50000a003200e10f500032
:101abc000d003a008000eb00906328004f000700f7
:101acc000a0037008000eb00a06428004b000700e0
:101adc00060037008000eb00b065280047000700c7
:101aec000000000001003700000000000080fa0038
:041afc0000000600e0
:020000040000fa
:101b0000260800009000000000000000000800000f
:101b10000e00000000000000d608000014000000c5
:101b20000000000024080000020000000200000085
:101b30000100000020080000040000000200000076
:101b400038012000050000001a080000060000000f
:101b500000000000b60800002000000000000000a7
:101b60000e0800000c00000000000000ea08000061
:101b70001000000002000000303132003334350024
:101b80003637380039000000000000000000000077
:041b90000000000051
:020000040000fa
:101b94000000fa0000412000c01188003022ef004c
:101ba4003062a8003222ef0087c0a90087e0a900b4
:101bb40097c0a80097e0a8009c40a9003222a90081
:101bc40031e2a8003342a800900620009efd0700e1
:101bd400020007000080fa00000006000000fa007e
:101be40087e0a9001e28ef00f0408000e040880054
:101bf40030002000d04088003422ef000080fa003a
:101c0400000006000600fa0010079800210798005b
:101c14000000eb00000f78000a0037001e0090005f
:101c24001e004000904078002e009000628b20003f
:101c34004400dd001e00400000004100014878001f
:101c44001e0fe8001e007800ef0f5000f3ff36006f
:101c54000080fa00000006000000fa0000f02f00e7
:101c6400001688000080fa00000006000000fa0058
:101c74000080eb0050198800d2c2a800d2e2a8006c
:0c1c8400d3a2a8000080fa0000000600b7
:020000040000fa
:0200000401f009
:04000c00fbff0000f6
:020000040000fa
:0200000401f009
:040010007dff000070
:020000040000fa
:0200000401f009
:040014007fff00006a
:00000001FF
