:020000040000fa
:080000000002040000000000f2
:020000040000fa
:04000800ce05000021
:020000040000fa
:04000c00ce0500001d
:020000040000fa
:04001000ce05000019
:020000040000fa
:04001400ce05000015
:020000040000fa
:04001800ce05000011
:020000040000fa
:04001c00ce0500000d
:020000040000fa
:04002000ce05000009
:020000040000fa
:04002400ce05000005
:020000040000fa
:04002800ce05000001
:020000040000fa
:04002c00ce050000fd
:020000040000fa
:04003000ce050000f9
:020000040000fa
:04003400ce050000f5
:020000040000fa
:04003800ce050000f1
:020000040000fa
:04003c00ce050000ed
:020000040000fa
:04004000ce050000e9
:020000040000fa
:04004400ce050000e5
:020000040000fa
:04004800ce050000e1
:020000040000fa
:04004c00ce050000dd
:020000040000fa
:04005000ce050000d9
:020000040000fa
:04005400ce050000d5
:020000040000fa
:04005800ce050000d1
:020000040000fa
:04005c00c8020000d6
:020000040000fa
:04006000ce050000c9
:020000040000fa
:04006400ce050000c5
:020000040000fa
:04006800ce050000c1
:020000040000fa
:04006c00ce050000bd
:020000040000fa
:04007000ce050000b9
:020000040000fa
:04007400a6050000dd
:020000040000fa
:04007800ce050000b1
:020000040000fa
:04007c00ce050000ad
:020000040000fa
:04008000ce050000a9
:020000040000fa
:04008400ce050000a5
:020000040000fa
:04008800ce050000a1
:020000040000fa
:04008c00ce0500009d
:020000040000fa
:04009000ce05000099
:020000040000fa
:04009400ce05000095
:020000040000fa
:040098001c05000043
:020000040000fa
:04009c00ce0500008d
:020000040000fa
:0400a000dc0300007d
:020000040000fa
:0400a400460400000e
:020000040000fa
:0400a800ce05000081
:020000040000fa
:0400ac00ce0500007d
:020000040000fa
:0400b000ce05000079
:020000040000fa
:0400b400ce05000075
:020000040000fa
:0400b800ce05000071
:020000040000fa
:0400bc00ce0500006d
:020000040000fa
:0400c000ce05000069
:020000040000fa
:0400c400ce05000065
:020000040000fa
:0400c800ce05000061
:020000040000fa
:0400cc00ce0500005d
:020000040000fa
:0400d000ce05000059
:020000040000fa
:0400d400ce05000055
:020000040000fa
:0400d800ce05000051
:020000040000fa
:0400dc00ce0500004d
:020000040000fa
:0400e000ce05000049
:020000040000fa
:0400e400ce05000045
:020000040000fa
:0400e8000a05000005
:020000040000fa
:0400ec00ce0500003d
:020000040000fa
:0400f000ce05000039
:020000040000fa
:0400f400ce05000035
:020000040000fa
:0400f800ce05000031
:020000040000fa
:0400fc00ce0500002d
:020000040000fa
:04010000ce05000028
:020000040000fa
:04010400ce05000024
:020000040000fa
:04010800ce05000020
:020000040000fa
:04010c00ce0500001c
:020000040000fa
:04011000ce05000018
:020000040000fa
:04011400ce05000014
:020000040000fa
:04011800ce05000010
:020000040000fa
:04011c00ce0500000c
:020000040000fa
:04012000ce05000008
:020000040000fa
:04012400ce05000004
:020000040000fa
:04012800ce05000000
:020000040000fa
:04012c00ce050000fc
:020000040000fa
:04013000ce050000f8
:020000040000fa
:04013400ce050000f4
:020000040000fa
:04013800ce050000f0
:020000040000fa
:04013c00ce050000ec
:020000040000fa
:04014000ce050000e8
:020000040000fa
:04014400ce050000e4
:020000040000fa
:04020800ce0500001f
:020000040000fa
:04020c00ce0500001b
:020000040000fa
:04021000ce05000017
:020000040000fa
:04021400ce05000013
:020000040000fa
:04021800ce0500000f
:020000040000fa
:04021c00ce0500000b
:020000040000fa
:04022000ce05000007
:020000040000fa
:04022400ce05000003
:020000040000fa
:04022800ce050000ff
:020000040000fa
:04022c00ce050000fb
:020000040000fa
:04023000ce050000f7
:020000040000fa
:04023400ce050000f3
:020000040000fa
:04023800ce050000ef
:020000040000fa
:04023c00ce050000eb
:020000040000fa
:04024000ce050000e7
:020000040000fa
:04024400ce050000e3
:020000040000fa
:04024800ce050000df
:020000040000fa
:04024c00ce050000db
:020000040000fa
:04025000ce050000d7
:020000040000fa
:04025400ce050000d3
:020000040000fa
:04025800ce050000cf
:020000040000fa
:04025c00ce050000cb
:020000040000fa
:04026000ce050000c7
:020000040000fa
:04026400ce050000c3
:020000040000fa
:04026800ce050000bf
:020000040000fa
:04026c00ce050000bb
:020000040000fa
:04027000ce050000b7
:020000040000fa
:04027400ce050000b3
:020000040000fa
:04027800ce050000af
:020000040000fa
:04027c00ce050000ab
:020000040000fa
:04028000ce050000a7
:020000040000fa
:04028400ce050000a3
:020000040000fa
:04028800ce0500009f
:020000040000fa
:04028c00ce0500009b
:020000040000fa
:04029000ce05000097
:020000040000fa
:04029400ce05000093
:020000040000fa
:04029800ce0500008f
:020000040000fa
:04029c00ce0500008b
:020000040000fa
:0402a000ce05000087
:020000040000fa
:0402a400ce05000083
:020000040000fa
:0402a800ce0500007f
:020000040000fa
:0402ac00ce0500007b
:020000040000fa
:0402b000ce05000077
:020000040000fa
:0402b400ce05000073
:020000040000fa
:0402b800ce0500006f
:020000040000fa
:0402bc00ce0500006b
:020000040000fa
:0402c000ce05000067
:020000040000fa
:0402c400ce05000063
:020000040000fa
:0402c800ce0500005f
:020000040000fa
:0402cc00ce0500005b
:020000040000fa
:0402d000ce05000057
:020000040000fa
:0402d400ce05000053
:020000040000fa
:0402d800ce0500004f
:020000040000fa
:0402dc00ce0500004b
:020000040000fa
:0402e000ce05000047
:020000040000fa
:0402e400ce05000043
:020000040000fa
:0402e800ce0500003f
:020000040000fa
:0402ec00ce0500003b
:020000040000fa
:0402f000ce05000037
:020000040000fa
:0402f400ce05000033
:020000040000fa
:0402f800ce0500002f
:020000040000fa
:0402fc00ce0500002b
:020000040000fa
:04030000ce05000026
:020000040000fa
:04030400ce05000022
:020000040000fa
:04030800ce0500001e
:020000040000fa
:04030c00ce0500001a
:020000040000fa
:04031000ce05000016
:020000040000fa
:04031400ce05000012
:020000040000fa
:04031800ce0500000e
:020000040000fa
:04031c00ce0500000a
:020000040000fa
:04032000ce05000006
:020000040000fa
:04032400ce05000002
:020000040000fa
:04032800ce050000fe
:020000040000fa
:04032c00ce050000fa
:020000040000fa
:04033000ce050000f6
:020000040000fa
:04033400ce050000f2
:020000040000fa
:04033800ce050000ee
:020000040000fa
:04033c00ce050000ea
:020000040000fa
:04034000ce050000e6
:020000040000fa
:04034400ce050000e2
:020000040000fa
:10040000ef8e20000e7f24000e0188000000000007
:10041000000020000000e000020032000001200087
:100420002002880014000700de0107000000e00041
:1004300003003a0060ca20000100200002003700db
:100440000000200001002000810f70000100320038
:1004500014000700000020000000e000020032004d
:1004600000000200000000001c0c02000000000060
:100470000040da000000fe004440a9000006200011
:100480000000e0000300320000002000a00188000e
:100490004440a800000006008a1f78008b1f7800e7
:1004a0000000060091018800800478000000eb0045
:1004b0001a003700e284440032a0b4009905ba0063
:1004c000e284440032a0b4009906ba00e2844400f9
:1004d00032a0b4000006eb00476fde00fd07b2005b
:1004e000636ce10003003a00ebff07000000eb0043
:1004f0000a003700606ce10004003a00005deb0088
:100500008b05e900fdff3e00040037006168e10053
:10051000010032000086eb000b00070019c7ba008b
:100520001905ba000e04e00003003a000a00e000da
:10053000e0ff3a0000000600fe07b2009e018800be
:100540008a047800f5ff3700395dba008b05e900b1
:100550000c003200295dba008b05e900080032006a
:100560000c00e00003003a00e284440032a0b40032
:10057000f5ff370019ddba008b05e900faff3a00f4
:100580008904e800e184440032a0b40000000600c1
:10059000809fbe00829fbe000600fa0040198000c6
:1005a000004078007f4060000080fb00e50f5000b5
:1005b0000a003200e50f500003003c00e40f500039
:1005c0001b0032005c003700e80f50002e003200a4
:1005d000e90f50004200320057003700c080200071
:1005e0009000780021079800001880008000eb0040
:1005f0002e019000c211dd00e28220000281410044
:100600000089be004119800000fe2f0000806000bc
:100610000020a00040198800c08020001000780051
:100620008000e800c0802000010878004200370008
:10063000c0802000900090002107980000188000e2
:100640008000eb002e01900068014100c211dd0026
:10065000e2822000028141000089be004119800031
:1006600000fe2f00008060000030a00040198800cc
:10067000c0802000100090008000e800c0802000b2
:10068000110098002c003700c0802000a0009000ce
:1006900021079800001880008000eb002e019000d8
:1006a00070014100c211dd00e282200002814100a0
:1006b0000089be004119800000fe2f00008060000c
:1006c0009000b30040198800c080200020009000f6
:1006d0008000e800c080200021009800160037004c
:1006e000c0802000b0009000210798000018800012
:1006f0008000eb002e01900078014100c211dd0066
:10070000e2822000028141000089be004119800080
:1007100000fe2f00008060005000b30040198800e8
:10072000c0802000300090008000e800c0802000e1
:100730003100980000000000100020001007980011
:100740000000eb00000f78000b003700c180200094
:100750001e0078000000400000804000100078007b
:10076000e80f5000030032000000eb001007980073
:10077000040037001e0fe8001e007800e30f500051
:10078000f2ff34001e0090000000e0000400320080
:1007900021e3a90010002000a040880001003700dc
:1007a0002023a80085a0a9000080fa004f01be0008
:1007b0004f00be00004006003600f800809fbe00db
:1007c000829fbe00849fbe00869fbe000200fa008a
:1007d000b0118000004f78001e00fb0001052000d2
:1007e000810f50001c00320001052000810f5000d5
:1007f00007003c0031042000810f5000140032003b
:1008000091042000810f50000b00320014003700cb
:1008100091062000810f50000700320001072000e0
:10082000810f50000c00320031062000810f500073
:10083000070032000a0037004302070011002000c1
:10084000c06128005e04070036040700040037007a
:100850002fe1a800020037002fe1a90000000000ee
:100860009e407800d08d20000148780087c0a90004
:100870000080fa004f03be004f02be004f01be00d1
:100880004f00be003600f90000400600809fbe0009
:10089000821f78000200fa00b0408000e10f500093
:1008a00021003200e10f500011003900e20f50002a
:1008b00037003200e30f500048003a00c04080008b
:1008c00001652800e14078008100fb00a11188004b
:1008d0000000e800c0408800c0408000e40f5000e5
:1008e00040003a001828ef001628ef0044003700b7
:1008f000c040800051652800e14078008100fb0085
:10090000a11188000000e800c0408800c0408000bd
:10091000e30f500035003a001828ef0010002000c7
:10092000b040880036003700d1408000c0408000d1
:10093000c408dd0080804000e28b2000e2c0780027
:100940008180fb00a11188000000e800c040880001
:10095000c0408000f00f500026003a001828ef0039
:10096000d04080000000e800d0408800d0408000e7
:10097000e20f500003003a001628ef001a28ef009b
:100980001f00370020002000b04088001c00370006
:10099000c0408000004f78000000e800c0408800a0
:1009a0001e4078000004e00003003a00d000200060
:1009b000a0118800120037001e407800e14f50005f
:1009c0000e003a00a0002000a011880010002000b6
:1009d000b04088001828ef00090037000000000030
:1009e000070037000000000005003700000000008d
:1009f0000300370000000000010037000000000085
:100a000087e0a9000080fa004f0178004f00be0087
:100a100000400600801f78000000fa0010408000af
:100a20006a004000104088008a00a9000080fa0097
:100a30004f007800004006003600f800809fbe009e
:100a4000829fbe00849fbe00869fbe000000fa0009
:100a500000c8bf000080fb00e10f50001000320012
:100a6000e10f500003003c000000e00006003200ef
:100a70002e003700e20f500016003200e30f500046
:100a80001a0032002900370000c8b300d302070063
:100a90000a28ef0010c0b30000e8b70023003700b9
:100aa00050408000e18b200061407800dc020700ac
:100ab000504080000000e800504088005040800016
:100ac000f00f500016003a0020c0b30000e8b70055
:100ad0001600370000ccb300c00207000a28ef0060
:100ae00030c0b30000e8b70010003700504080006d
:100af00070004000e18b200061407800c8020700d0
:100b0000504080000000e8005040880050408000c5
:100b1000f00f500004003a000068ef0003003700b7
:100b20000000000001003700000000008780a900dd
:100b30000080fa004f03be004f02be004f01be000e
:100b40004f00be003600f900004006003600f800f5
:100b5000809fbe00829fbe00849fbe00869fbe0015
:100b60000000fa00a1168000000022000080600052
:100b70000000e00001003a00ae0307008660a90013
:100b80000080fa004f03be004f02be004f01be00be
:100b90004f00be003600f900004006000040da00b9
:100ba0000000fe00000005006022b80006022000e0
:100bb0000000d0008180d2000482d2008582d20061
:100bc0000000a0000202520083825a00030031009c
:100bd0000202420083824a000000a1000603e900ed
:100be000f3ff3a0000000600efff07000400be001c
:040bf00000000600fb
:020000040000fa
:100bf4002d2d00002d200000507500006c730000a6
:100c04006120000053330000202000002d2d00003f
:100c1400002d00002d2d00002d2000004144000077
:100c2400435f000076320000202d00002d2d0000cf
:100c34002d000000437200006f6e00006f3a000048
:100c440020300000303a0000303000002c3000002a
:100c540020200000005000003a2000003030000046
:100c64003030000020200000543a00002030000002
:100c74003030000030000000583a000020300000fe
:100c84003030000030200000205900003a200000dd
:100c94003030000030300000000000001b5b00001a
:100ca400324a0000001b00005b4800000000000006
:020000040000fa
:100cb4000000fa002023ef0001198000000e20003c
:100cc40001007000001988002223ef002423ef00a4
:100cd4002119800000f02100010070002019880013
:100ce40030c0b30024e3b7003223ef002623ef0023
:100cf4002823ef004119800000fe2f0000806000cf
:100d04005000b300401988002e23ef003023ef0079
:100d14000080eb00501988000080eb006019880007
:100d24002ca3a9002c83a9002d03a9002d23a9001d
:100d340085a0a90095a0a8001119800030fc2f00ff
:100d4400008060001019880021e3a8000080fa00e8
:100d5400000006000400fa000000eb00000f780019
:100d64001f0037000000eb00100798000c0037004c
:100d74001e007800c300dd001e00900000804000cb
:100d8400c200dd00e0822000008140006000b80065
:100d94000089be001e0090000000e80010079800c3
:100da4001e009000e70f5000f1ff34001e00780091
:100db400c200dd00e08a2000008140006000b8002d
:100dc4000089be00c18020001e00780000004000a1
:100dd400008040008000eb00010878001e0fe8004e
:100de4001e007800e30f5000deff34002023a8002b
:100df4000080fa00000006000200fa000000eb0088
:100e0400000f78000d0037001e007800c200dd00de
:100e1400e08a2000008140006000b8000089be0024
:100e2400c18020001e0078000000400000804000c7
:100e34008000eb00010878001e0fe8001e00780017
:100e4400e30f5000f0ff34001428ef0021e3a80062
:100e54002023a8000080fa00000006000400fa0025
:100e64000000eb00000f7800320037000000eb00b8
:100e740010079800170037001e007800c200dd003c
:100e8400e08a2000008040001002be001e007800ae
:100e9400c300dd001e00900000804000c200dd00a1
:100ea400e0822000008040001000be0004004000ea
:100eb400858048001e027800c222dd00e48a2000fa
:100ec40004824200008abe001e0090000000e80078
:100ed400100798001e009000e70f5000e6ff340052
:100ee4001e007800c200dd00e08a2000008040007f
:100ef4001000be00e00f5000e08f580002003d00db
:100f040067004000e08048004d0add004301de0038
:100f140002017200c389de000200be001e027800d6
:100f2400c222dd00e48a200004824200008abe005e
:100f34001e0fe8001e007800e30f5000cbff3400c2
:100f44000000eb00000f78000d0037001e00780051
:100f5400c200dd00e08a2000008040001000be00d6
:100f6400e38120001e0178004211dd00028241006d
:100f74000001be0004007800420107001e0fe800d3
:100f84001e007800e30f5000f0ff3400e0408000c2
:100f9400e10f500003003200e20f50002200320043
:100fa40042003700e081200090407800108c20003f
:100fb40001487800f081200090407800208c2000c7
:100fc400014878000082200090407800308c200096
:100fd400014878001082200090407800408c200066
:100fe400014878002082200090407800a08c2000e6
:100ff400014878003082200090407800b08c2000b6
:10100400014878004082200090407800c08c200085
:10101400014878005082200090407800d08c200055
:101024000148780021003700608220009040780059
:10103400108c2000014878007082200090407800d5
:10104400208c2000014878008082200090407800a5
:10105400308c200001487800908220009040780075
:10106400408c200001487800a08220009040780045
:10107400a08c200001487800b082200090407800c5
:10108400b08c200001487800c08220009040780095
:10109400c08c200001487800d08220009040780065
:1010a400d08c200001487800000000000080fa0085
:1010b400000006000000fa003c21a9003cc1a90080
:1010c4000080fa00000006000000fa002621ef006c
:1010d400f0342c005009880071098000f0fc2f00c6
:1010e400008060000040a000700988002e21a90043
:1010f4002ec1a9002fe1a8009a00a8008a00a90027
:101104000080fa00000006000000fa001821ef0039
:10111400f0c32900e008880001098000f0fc2f00da
:1011240000806000000988002021a90020c1a900d6
:1011340021e1a8009780a8008780a9000080fa0018
:10114400000006000000fa000228ef000428ef0067
:101154000628ef000828ef002621ef000080fa009f
:10116400000006000400fa00100798001000200098
:10117400000f7800e1098000f0fc2f00008060007f
:10118400e00988001e0078000080fa0000000600d4
:101194000600fa00200798003421ef00ae0090000a
:1011a400800220000088b90000007800000f780059
:1011b4001e007800ebff0700100798009e007800df
:1011c4001e00900000017800110009008280d80000
:1011d4000000e900c00988003de1a800000000000b
:1011e40050048000700060000000e000fcff32004a
:1011f4003de1a9008a80a9000080fa0000000600f1
:101204000600fa0020079800ae0090004006200077
:10121400808f500001003600ffff37003421ef00bb
:10122400ae00900000c429000088b90000007800d6
:10123400000f78001e007800caff0700100798000e
:101244009e0078001e009000000178001100090043
:101254008280d8000000e900c00988003de1a800b0
:101264000000000050048000700060000000e000f6
:10127400fcff32003de1a9008a80a9000080fa0049
:10128400000006000600fa0011408000400620001d
:10129400808f500055003a00204080000000e80094
:1012a400204088000228ef002016800061006000c2
:1012b40000f0a7000000ea000000e9004f00de0093
:1012c400004078000080fb0061006000211680006f
:1012d4000100a10001007000201688002140800058
:1012e4006400470043000700de409000b08d2000fa
:1012f4000148780020408000ea0f50003b003a008b
:10130400304080000000e800304088000428ef00ee
:10131400201680006400600000f0a7000000ea00ce
:101324000000e9004f00de00004078000080fb0070
:10133400610060004200dd00211680000120a10050
:10134400010070002016880031408000c003200096
:10135400808f50001c003a00404080000000e800ec
:10136400404088000628ef002016800070006000ce
:1013740000f0a7000000ea000000e9004f00de00d2
:10138400004078000080fb00610060004400dd0044
:10139400211680000140a100010070002016880081
:1013a40040408000800078000e00780011000700a3
:1013b4009e407800508d2000014878009e409000a7
:1013c400608d200001487800314080000e80e800e4
:1013d40008000700ae409000808d2000014878008e
:1013e400be409000908d2000014878000080fa00f3
:1013f400000006000600fa00100798002107980074
:10140400ae00900030062000808f500001003600ae
:10141400ffff3700ae009000d0cc2c000008b800cd
:101424004308de00004f78001e80fb00e18d2000a1
:10143400614f78001e0090001e4878001e00900046
:101444000000e800100798002e019000d0cc2c007a
:101454000010b8004308de006a00b90000007800fc
:1014640000005100004f78001e80fb00e18d200039
:10147400614f78001e0090001e4878000080fa003a
:10148400000006000800fa001007980022079800e0
:10149400330798002e019000be019000f03f200019
:1014a40001002000800f5100818f59000100360097
:1014b400ffff37002e009000004f78002e009000b0
:1014c400be009000823e200003002000b5fd07000e
:1014d400004f78001e80fb00e18d2000614f7800f2
:1014e4001e0090001e4878001e0090000000e800d6
:1014f400100798002e009000be00900042062000c5
:1015040003002000a7fd0700004f78001e81fb00a8
:10151400d0cc2c000010b8004308de006a00b900eb
:101524000000780000005100004f78001e80fb008e
:10153400e18d2000614f78001e0090001e48780065
:101544001e0090000000e800100798002e00900094
:10155400be009000a20020000300200091fd0700bf
:10156400004f78001e81fb00d0cc2c000010b80086
:101574004308de006a00b900000078000000510052
:10158400004f78001e80fb00e18d2000614f780041
:101594001e0090001e4878001e0090000000e80025
:1015a400100798002e009000be009000a2002000ba
:1015b400030020008bfd0700004f78001e80fb0015
:1015c400e18d2000614f78001e0090001e487800d5
:1015d4000080fa00000006000200fa00004f7800c4
:1015e400d6a2a900cbe2a900e116800000f02f00ea
:1015f40000806000e01688009e00fb00e01680007a
:1016040001007000e0168800d682a800d682a900e6
:10161400d6a2a8000080fa00000006000200fa002a
:10162400004f7800d6a2a900cbe2a800e116800002
:1016340000f02f0000806000e01688009e00fb0090
:10164400e016800001007000e0168800d682a80031
:10165400d682a900cbe2a900d6a2a8000080fa0095
:10166400000006000000fa00f0002000e4fe07007d
:10167400e116800000f02f0000806000e016880072
:10168400d6a2a900cbe2a900d682a900c116800087
:1016940000f02f0000806000c0168800d2a2a900cc
:1016a400c7e2a900d282a90080c3b300caff070021
:1016b40050002000d2fe070080c3b300c6ff07001d
:1016c40040062000b2fe070080c3b300c2ff07003b
:1016d40080022000aefe070080c3b300beff0700f7
:1016e40080022000aafe0700c0c0b300baff0700b2
:1016f40080022000a6fe070060c0b300b6ff07000a
:1017040080022000a2fe07000080fa00000006000c
:101714000400fa00000f7800214798000900370000
:101724001e007800104078001e0fe800bbff070081
:101734008002200096fe07002e4090000040e90041
:10174400204798002e4090000004e000f4ff3a0087
:101754000080fa00000006000000fa0000c8b30090
:101764009dff07008002200089fe07000080fa0028
:10177400000006000000fa0000ccb30096ff07004a
:101784008002200082fe07000080fa0000000600ac
:101794000000fa0060022000303a8800213a8000fc
:1017a400f0f32f0000806000203a8800213a800086
:1017b40000fe2f0000806000203a880040a7a900a6
:1017c4003200200080072000a1092000337420008b
:1017d400804978008149780082497800120020000d
:1017e40060042000710520002374200080497800e3
:1017f400814978008249780000000000113a800095
:10180400000027008080600000002300808f5000cb
:10181400faff3a0000000000113a800000022000a4
:10182400008060000000e000fbff32000080fa004e
:10183400000006000000fa00d5ff0700870007003b
:101844008b00070087ff07002200070018fd070030
:101854002dfe070017fe07008000eb00b060280093
:101864005600070011002000a05f28005300070065
:1018740000000000a1168000000420000080600029
:101884000000e000fbff3a008000eb00d06228007b
:101894004a00070011002000c0612800470007002b
:1018a4005b00070027fe070007fe070029fd07006d
:1018b400010037000000000072fe0700a040800015
:1018c4000000e000fbff320064fd07004afd070052
:1018d400f9ff37000000fa0000412000c011880021
:1018e4003022ef003062a8003222ef0087c0a90046
:1018f40087e0a90097c0a80097e0a8009c40a90031
:101904003222a90031e2a8003342a8009006200048
:101914001ffe0700020007000080fa000000060016
:101924000000fa0087e0a9001a28ef00d0408000e8
:10193400c040880030002000b04088003422ef000e
:081944000080fa00000006001b
:020000040000fa
:10194c001e080000a0000000000000000c080000b1
:10195c000a000000000000001c080000020000004b
:10196c000200000001000000160800000600000044
:10197c0000000000be080000200000000000000075
:10198c00000800000c00000000000000de08000051
:10199c0010000000020000003031320033343500fa
:1019ac00363738003900000000000000000000004d
:0419bc000000000027
:020000040000fa
:1019c0000600fa0010079800210798000000eb00bd
:1019d000000f78000a0037001e0090001e00400033
:1019e000904078002e009000e28b20004400dd0043
:1019f0001e00400000004100014878001e0fe80072
:101a00001e007800ef0f5000f3ff36000080fa0050
:101a1000000006000000fa0062e0a8006200a800d2
:101a20006260a8009660a8008660a9000080fa00a5
:101a3000000006000000fa00e04080000000e8001e
:101a4000e0408800e0408000e20f500002003400d7
:101a500010002000e04088000080fa00000006002e
:101a60000000fa0000f02f00001688000080fa0045
:101a7000000006000000fa000080eb00501988000a
:101a8000d2c2a800d2e2a800d3a2a8000080fa0027
:041a9000000006004c
:020000040000fa
:0200000401f009
:04000c00fbff0000f6
:020000040000fa
:0200000401f009
:040010007dff000070
:020000040000fa
:0200000401f009
:040014007fff00006a
:00000001FF
