:020000040000fa
:080000000002040000000000f2
:020000040000fa
:040008002e030000c3
:020000040000fa
:04000c002e030000bf
:020000040000fa
:040010002e030000bb
:020000040000fa
:040014002e030000b7
:020000040000fa
:040018002e030000b3
:020000040000fa
:04001c002e030000af
:020000040000fa
:040020002e030000ab
:020000040000fa
:040024002e030000a7
:020000040000fa
:040028002e030000a3
:020000040000fa
:04002c002e0300009f
:020000040000fa
:040030002e0300009b
:020000040000fa
:040034002e03000097
:020000040000fa
:040038002e03000093
:020000040000fa
:04003c002e0300008f
:020000040000fa
:040040002e0300008b
:020000040000fa
:040044002e03000087
:020000040000fa
:040048002e03000083
:020000040000fa
:04004c002e0300007f
:020000040000fa
:040050002e0300007b
:020000040000fa
:040054002e03000077
:020000040000fa
:040058002e03000073
:020000040000fa
:04005c002e0300006f
:020000040000fa
:040060002e0300006b
:020000040000fa
:040064002e03000067
:020000040000fa
:040068002e03000063
:020000040000fa
:04006c002e0300005f
:020000040000fa
:040070002e0300005b
:020000040000fa
:040074002e03000057
:020000040000fa
:040078002e03000053
:020000040000fa
:04007c002e0300004f
:020000040000fa
:040080002e0300004b
:020000040000fa
:040084002e03000047
:020000040000fa
:040088002e03000043
:020000040000fa
:04008c002e0300003f
:020000040000fa
:040090002e0300003b
:020000040000fa
:040094002e03000037
:020000040000fa
:040098002e03000033
:020000040000fa
:04009c002e0300002f
:020000040000fa
:0400a0002e0300002b
:020000040000fa
:0400a4002e03000027
:020000040000fa
:0400a8002e03000023
:020000040000fa
:0400ac002e0300001f
:020000040000fa
:0400b0002e0300001b
:020000040000fa
:0400b4002e03000017
:020000040000fa
:0400b8002e03000013
:020000040000fa
:0400bc002e0300000f
:020000040000fa
:0400c0002e0300000b
:020000040000fa
:0400c4002e03000007
:020000040000fa
:0400c8002e03000003
:020000040000fa
:0400cc002e030000ff
:020000040000fa
:0400d0002e030000fb
:020000040000fa
:0400d4002e030000f7
:020000040000fa
:0400d8002e030000f3
:020000040000fa
:0400dc002e030000ef
:020000040000fa
:0400e0002e030000eb
:020000040000fa
:0400e4002e030000e7
:020000040000fa
:0400e800c80200004a
:020000040000fa
:0400ec002e030000df
:020000040000fa
:0400f0002e030000db
:020000040000fa
:0400f4002e030000d7
:020000040000fa
:0400f8002e030000d3
:020000040000fa
:0400fc002e030000cf
:020000040000fa
:040100002e030000ca
:020000040000fa
:040104002e030000c6
:020000040000fa
:040108002e030000c2
:020000040000fa
:04010c002e030000be
:020000040000fa
:040110002e030000ba
:020000040000fa
:040114002e030000b6
:020000040000fa
:040118002e030000b2
:020000040000fa
:04011c002e030000ae
:020000040000fa
:040120002e030000aa
:020000040000fa
:040124002e030000a6
:020000040000fa
:040128002e030000a2
:020000040000fa
:04012c002e0300009e
:020000040000fa
:040130002e0300009a
:020000040000fa
:040134002e03000096
:020000040000fa
:040138002e03000092
:020000040000fa
:04013c002e0300008e
:020000040000fa
:040140002e0300008a
:020000040000fa
:040144002e03000086
:020000040000fa
:040208002e030000c1
:020000040000fa
:04020c002e030000bd
:020000040000fa
:040210002e030000b9
:020000040000fa
:040214002e030000b5
:020000040000fa
:040218002e030000b1
:020000040000fa
:04021c002e030000ad
:020000040000fa
:040220002e030000a9
:020000040000fa
:040224002e030000a5
:020000040000fa
:040228002e030000a1
:020000040000fa
:04022c002e0300009d
:020000040000fa
:040230002e03000099
:020000040000fa
:040234002e03000095
:020000040000fa
:040238002e03000091
:020000040000fa
:04023c002e0300008d
:020000040000fa
:040240002e03000089
:020000040000fa
:040244002e03000085
:020000040000fa
:040248002e03000081
:020000040000fa
:04024c002e0300007d
:020000040000fa
:040250002e03000079
:020000040000fa
:040254002e03000075
:020000040000fa
:040258002e03000071
:020000040000fa
:04025c002e0300006d
:020000040000fa
:040260002e03000069
:020000040000fa
:040264002e03000065
:020000040000fa
:040268002e03000061
:020000040000fa
:04026c002e0300005d
:020000040000fa
:040270002e03000059
:020000040000fa
:040274002e03000055
:020000040000fa
:040278002e03000051
:020000040000fa
:04027c002e0300004d
:020000040000fa
:040280002e03000049
:020000040000fa
:040284002e03000045
:020000040000fa
:040288002e03000041
:020000040000fa
:04028c002e0300003d
:020000040000fa
:040290002e03000039
:020000040000fa
:040294002e03000035
:020000040000fa
:040298002e03000031
:020000040000fa
:04029c002e0300002d
:020000040000fa
:0402a0002e03000029
:020000040000fa
:0402a4002e03000025
:020000040000fa
:0402a8002e03000021
:020000040000fa
:0402ac002e0300001d
:020000040000fa
:0402b0002e03000019
:020000040000fa
:0402b4002e03000015
:020000040000fa
:0402b8002e03000011
:020000040000fa
:0402bc002e0300000d
:020000040000fa
:0402c0002e03000009
:020000040000fa
:0402c4002e03000005
:020000040000fa
:0402c8002e03000001
:020000040000fa
:0402cc002e030000fd
:020000040000fa
:0402d0002e030000f9
:020000040000fa
:0402d4002e030000f5
:020000040000fa
:0402d8002e030000f1
:020000040000fa
:0402dc002e030000ed
:020000040000fa
:0402e0002e030000e9
:020000040000fa
:0402e4002e030000e5
:020000040000fa
:0402e800c802000048
:020000040000fa
:0402ec002e030000dd
:020000040000fa
:0402f0002e030000d9
:020000040000fa
:0402f4002e030000d5
:020000040000fa
:0402f8002e030000d1
:020000040000fa
:0402fc002e030000cd
:020000040000fa
:040300002e030000c8
:020000040000fa
:040304002e030000c4
:020000040000fa
:040308002e030000c0
:020000040000fa
:04030c002e030000bc
:020000040000fa
:040310002e030000b8
:020000040000fa
:040314002e030000b4
:020000040000fa
:040318002e030000b0
:020000040000fa
:04031c002e030000ac
:020000040000fa
:040320002e030000a8
:020000040000fa
:040324002e030000a4
:020000040000fa
:040328002e030000a0
:020000040000fa
:04032c002e0300009c
:020000040000fa
:040330002e03000098
:020000040000fa
:040334002e03000094
:020000040000fa
:040338002e03000090
:020000040000fa
:04033c002e0300008c
:020000040000fa
:040340002e03000088
:020000040000fa
:040344002e03000084
:020000040000fa
:100400008f8020000e7f24000e0188000000000075
:10041000000020000000e000020032000001200087
:1004200020028800140007008e0007000000e00092
:1004300003003a00e04120000100200002003700e4
:100440000000200001002000810f70000100320038
:1004500014000700000020000000e000020032004d
:1004600000000200000000000e0402000000000076
:100470000040da000000fe004440a9000000200017
:100480000000e0000300320000002000a00188000e
:100490004440a800000006008a1f78008b1f7800e7
:1004a0000000060091018800800478000000eb0045
:1004b0001a003700e284440032a0b4009905ba0063
:1004c000e284440032a0b4009906ba00e2844400f9
:1004d00032a0b4000006eb00476fde00fd07b2005b
:1004e000636ce10003003a00ebff07000000eb0043
:1004f0000a003700606ce10004003a00005deb0088
:100500008b05e900fdff3e00040037006168e10053
:10051000010032000086eb000b00070019c7ba008b
:100520001905ba000e04e00003003a000a00e000da
:10053000e0ff3a0000000600fe07b2009e018800be
:100540008a047800f5ff3700395dba008b05e900b1
:100550000c003200295dba008b05e900080032006a
:100560000c00e00003003a00e284440032a0b40032
:10057000f5ff370019ddba008b05e900faff3a00f4
:100580008904e800e184440032a0b40000000600c1
:10059000809fbe000000fa00004080000000e800dc
:1005a000004088000140800040062000808f5000fd
:1005b00011003a00104080000000e8001040880060
:1005c0000028ef00201680006100600000f0a70006
:1005d0000000ea000000e9004f00de000040780063
:1005e0000080fb0061006000211680000100a10076
:1005f000010070002016880010408000ea0f5000b3
:1006000012003a00204080000000e80020408800ee
:100610000228ef00201680006200600000f0a700b2
:100620000000ea000000e9004f00de000040780012
:100630000080fb0061006000000040002116800087
:100640000110a10001007000201688008a00a90096
:100650000080fa004f00be00004006000040da00b3
:080660000000fe00000005008f
:020000040000fa
:100668000000fa002621ef0000352c005009880010
:100678002e21a9002ec1a9000080fa000000060062
:100688000000fa008a00a9009a00a8000028ef00dc
:100698000228ef000428ef000080fa00000006009e
:1006a8000000fa0000000000a116800000042000ed
:1006b800008060000000e000fbff3a002fe1a80086
:1006c8000100370000000000a11680000000220091
:1006d800008060000000e0000a003a007009800015
:1006e8000080ea004f00de00004078000080fb0038
:1006f8004f00dd007109800001f0a10001007000c9
:1007080070098800a11680000008200000806000a1
:100718000000e000ebff3a002fe1a9002621ef00de
:1007280000f02f0020168800e7ff37000000fa00cd
:1007380060022000303a8800213a8000f0f32f0050
:1007480000806000203a8800213a800000fe2f00d7
:1007580000806000203a880040a7a90032002000ed
:1007680080072000a1092000337420008049780008
:100778008149780082497800120020006004200036
:100788007105200023742000804978008149780091
:100798008249780000000000113a8000000027001c
:1007a8008080600000002300808f5000faff3a002c
:1007b80000000000113a8000000220000080600064
:1007c8000000e000fbff32000080fa000000060095
:1007d8000000fa0000f02f0000168800000000005a
:1007e800000000002116800000f02f00008060004b
:1007f800201688000080fa00000006000000fa00b9
:10080800d2c2a800d2e2a800d3a2a8000080fa00b1
:10081800000006000000fa00c4ff0700ecff070014
:10082800f6ff070096ff07008dff07009cff0700f3
:04083800feff370088
:020000040000fa
:10083c00000800000800000000000000000000009c
:020000040000fa
:0200000401f009
:04000c00fbff0000f6
:020000040000fa
:0200000401f009
:040010007dff000070
:020000040000fa
:0200000401f009
:040014007fff00006a
:00000001FF
