:020000040000fa
:080000000002040000000000f2
:020000040000fa
:04000800640400008c
:020000040000fa
:04000c006404000088
:020000040000fa
:040010006404000084
:020000040000fa
:040014006404000080
:020000040000fa
:04001800640400007c
:020000040000fa
:04001c006404000078
:020000040000fa
:040020006404000074
:020000040000fa
:040024006404000070
:020000040000fa
:04002800640400006c
:020000040000fa
:04002c006404000068
:020000040000fa
:040030006404000064
:020000040000fa
:040034006404000060
:020000040000fa
:04003800640400005c
:020000040000fa
:04003c006404000058
:020000040000fa
:040040006404000054
:020000040000fa
:040044006404000050
:020000040000fa
:04004800640400004c
:020000040000fa
:04004c006404000048
:020000040000fa
:040050006404000044
:020000040000fa
:040054006404000040
:020000040000fa
:04005800640400003c
:020000040000fa
:04005c006404000038
:020000040000fa
:040060006404000034
:020000040000fa
:040064006404000030
:020000040000fa
:04006800640400002c
:020000040000fa
:04006c006404000028
:020000040000fa
:040070006404000024
:020000040000fa
:040074006404000020
:020000040000fa
:04007800640400001c
:020000040000fa
:04007c006404000018
:020000040000fa
:040080006404000014
:020000040000fa
:040084006404000010
:020000040000fa
:04008800640400000c
:020000040000fa
:04008c006404000008
:020000040000fa
:040090006404000004
:020000040000fa
:040094006404000000
:020000040000fa
:04009800da03000087
:020000040000fa
:04009c0064040000f8
:020000040000fa
:0400a000c802000092
:020000040000fa
:0400a400280300002d
:020000040000fa
:0400a80064040000ec
:020000040000fa
:0400ac0064040000e8
:020000040000fa
:0400b00064040000e4
:020000040000fa
:0400b40064040000e0
:020000040000fa
:0400b80064040000dc
:020000040000fa
:0400bc0064040000d8
:020000040000fa
:0400c00064040000d4
:020000040000fa
:0400c40064040000d0
:020000040000fa
:0400c80064040000cc
:020000040000fa
:0400cc0064040000c8
:020000040000fa
:0400d00064040000c4
:020000040000fa
:0400d40064040000c0
:020000040000fa
:0400d80064040000bc
:020000040000fa
:0400dc0064040000b8
:020000040000fa
:0400e00064040000b4
:020000040000fa
:0400e40064040000b0
:020000040000fa
:0400e800c803000049
:020000040000fa
:0400ec0064040000a8
:020000040000fa
:0400f00064040000a4
:020000040000fa
:0400f40064040000a0
:020000040000fa
:0400f800640400009c
:020000040000fa
:0400fc006404000098
:020000040000fa
:040100006404000093
:020000040000fa
:04010400640400008f
:020000040000fa
:04010800640400008b
:020000040000fa
:04010c006404000087
:020000040000fa
:040110006404000083
:020000040000fa
:04011400640400007f
:020000040000fa
:04011800640400007b
:020000040000fa
:04011c006404000077
:020000040000fa
:040120006404000073
:020000040000fa
:04012400640400006f
:020000040000fa
:04012800640400006b
:020000040000fa
:04012c006404000067
:020000040000fa
:040130006404000063
:020000040000fa
:04013400640400005f
:020000040000fa
:04013800640400005b
:020000040000fa
:04013c006404000057
:020000040000fa
:040140006404000053
:020000040000fa
:04014400640400004f
:020000040000fa
:04020800640400008a
:020000040000fa
:04020c006404000086
:020000040000fa
:040210006404000082
:020000040000fa
:04021400640400007e
:020000040000fa
:04021800640400007a
:020000040000fa
:04021c006404000076
:020000040000fa
:040220006404000072
:020000040000fa
:04022400640400006e
:020000040000fa
:04022800640400006a
:020000040000fa
:04022c006404000066
:020000040000fa
:040230006404000062
:020000040000fa
:04023400640400005e
:020000040000fa
:04023800640400005a
:020000040000fa
:04023c006404000056
:020000040000fa
:040240006404000052
:020000040000fa
:04024400640400004e
:020000040000fa
:04024800640400004a
:020000040000fa
:04024c006404000046
:020000040000fa
:040250006404000042
:020000040000fa
:04025400640400003e
:020000040000fa
:04025800640400003a
:020000040000fa
:04025c006404000036
:020000040000fa
:040260006404000032
:020000040000fa
:04026400640400002e
:020000040000fa
:04026800640400002a
:020000040000fa
:04026c006404000026
:020000040000fa
:040270006404000022
:020000040000fa
:04027400640400001e
:020000040000fa
:04027800640400001a
:020000040000fa
:04027c006404000016
:020000040000fa
:040280006404000012
:020000040000fa
:04028400640400000e
:020000040000fa
:04028800640400000a
:020000040000fa
:04028c006404000006
:020000040000fa
:040290006404000002
:020000040000fa
:0402940064040000fe
:020000040000fa
:0402980064040000fa
:020000040000fa
:04029c0064040000f6
:020000040000fa
:0402a00064040000f2
:020000040000fa
:0402a40064040000ee
:020000040000fa
:0402a80064040000ea
:020000040000fa
:0402ac0064040000e6
:020000040000fa
:0402b00064040000e2
:020000040000fa
:0402b40064040000de
:020000040000fa
:0402b80064040000da
:020000040000fa
:0402bc0064040000d6
:020000040000fa
:0402c00064040000d2
:020000040000fa
:0402c40064040000ce
:020000040000fa
:0402c80064040000ca
:020000040000fa
:0402cc0064040000c6
:020000040000fa
:0402d00064040000c2
:020000040000fa
:0402d40064040000be
:020000040000fa
:0402d80064040000ba
:020000040000fa
:0402dc0064040000b6
:020000040000fa
:0402e00064040000b2
:020000040000fa
:0402e40064040000ae
:020000040000fa
:0402e80064040000aa
:020000040000fa
:0402ec0064040000a6
:020000040000fa
:0402f00064040000a2
:020000040000fa
:0402f400640400009e
:020000040000fa
:0402f800640400009a
:020000040000fa
:0402fc006404000096
:020000040000fa
:040300006404000091
:020000040000fa
:04030400640400008d
:020000040000fa
:040308006404000089
:020000040000fa
:04030c006404000085
:020000040000fa
:040310006404000081
:020000040000fa
:04031400640400007d
:020000040000fa
:040318006404000079
:020000040000fa
:04031c006404000075
:020000040000fa
:040320006404000071
:020000040000fa
:04032400640400006d
:020000040000fa
:040328006404000069
:020000040000fa
:04032c006404000065
:020000040000fa
:040330006404000061
:020000040000fa
:04033400640400005d
:020000040000fa
:040338006404000059
:020000040000fa
:04033c006404000055
:020000040000fa
:040340006404000051
:020000040000fa
:04034400640400004d
:020000040000fa
:100400002f8420000e7f24000e01880000000000d1
:10041000000020000000e000020032000001200087
:100420002002880014000700290107000000e000f6
:1004300003003a0080852000010020000200370000
:100440000000200001002000810f70000100320038
:1004500014000700000020000000e000020032004d
:1004600000000200000000009808020000000000e8
:100470000040da000000fe004440a900a006200071
:100480000000e0000300320000002000a00188000e
:100490004440a800000006008a1f78008b1f7800e7
:1004a0000000060091018800800478000000eb0045
:1004b0001a003700e284440032a0b4009905ba0063
:1004c000e284440032a0b4009906ba00e2844400f9
:1004d00032a0b4000006eb00476fde00fd07b2005b
:1004e000636ce10003003a00ebff07000000eb0043
:1004f0000a003700606ce10004003a00005deb0088
:100500008b05e900fdff3e00040037006168e10053
:10051000010032000086eb000b00070019c7ba008b
:100520001905ba000e04e00003003a000a00e000da
:10053000e0ff3a0000000600fe07b2009e018800be
:100540008a047800f5ff3700395dba008b05e900b1
:100550000c003200295dba008b05e900080032006a
:100560000c00e00003003a00e284440032a0b40032
:10057000f5ff370019ddba008b05e900faff3a00f4
:100580008904e800e184440032a0b40000000600c1
:100590003600f800809fbe00829fbe00849fbe0090
:1005a000869fbe000200fa00b0118000004f780064
:1005b0001e00fb0001052000810f50001a003200d0
:1005c00001052000810f500007003c00310420008d
:1005d000810f50001200320091042000810f500062
:1005e0000b0032001200370091062000810f5000ee
:1005f0000700320001072000810f50000a0032007e
:1006000031062000810f500005003200080037003d
:10061000060107002621ef00010207000400370051
:100620002fe1a800020037002fe1a9000000000020
:1006300087c0a9000080fa004f03be004f02be0031
:100640004f01be004f00be003600f900004006001a
:10065000809fbe00821f78000200fa006040800088
:10066000e10f500013003200e20f50002b00320067
:100670000000e00041003a0070408000014d280079
:10068000e14078008100fb00a11188000000e80033
:100690007040880070408000e30f500034003a0042
:1006a0000e28ef00604080000000e80060408800f5
:1006b000320037008140800070408000c408dd00b7
:1006c0008080400022812000e2c078008180fb0011
:1006d000a11188000000e800704088007040800090
:1006e000f00f500024003a000e28ef0080408000f8
:1006f0000000e8008040880080408000e20f500049
:1007000002003a000c28ef001028ef006040800043
:100710000000e8006040880018003700704080004a
:10072000004f78000000e800704088001e4078000c
:100730000004e00003003a00d0002000a01188006f
:100740000e0037001e407800e14f500003003a00d1
:10075000a0002000a0118800080037006040800041
:100760000000e900604088000e28ef000300370019
:1007700000000000010037000000000087e0a90031
:100780000080fa004f0178004f00be0000400600d4
:10079000801f78000000fa00104080006a004000ce
:1007a000104088008a00a9000080fa004f007800fd
:1007b000004006003600f800809fbe00829fbe0009
:1007c000849fbe00869fbe000000fa0000c8bf00e4
:1007d0000080fb00e10f500010003200e10f5000dc
:1007e00003003c000000e000060032002e0037004d
:1007f000e20f500016003200e30f50001a003200e2
:100800002900370000c8b3001b0107000a28ef00c9
:1008100010c0b30000e8b70023003700504080004c
:1008200021812000614078002901070050408000ac
:100830000000e8005040880050408000f00f500059
:1008400016003a0020c0b30000e8b70016003700d9
:1008500000ccb300080107000a28ef0030c0b30045
:1008600000e8b700100037005040800070004000e2
:100870002181200061407800150107005040800070
:100880000000e8005040880050408000f00f500009
:1008900004003a000068ef00030037000000000089
:1008a00001003700000000008780a9000080fa00e6
:1008b0004f03be004f02be004f01be004f00be00fe
:1008c0003600f900004006000040da000000fe009b
:0408d000000005001f
:020000040000fa
:1008d4002d20000044530000452000003230000069
:1008e400323100002d320000322000002d2d000096
:1008f400002d00002d2d000020500000756c00001c
:10090400736100002053000033200000202d0000fc
:100914002d0000002d2d00002d2d0000204c000086
:10092400434400005f760000322000002d2d0000bb
:100934002d2d000000200000205300003420000072
:10094400636f00006d690000656e00007a6100004d
:10095400202d00002d0000005334000020730000ff
:10096400742f0000737400006f7000002c200000ce
:10097400533600003d30000000430000726f000059
:100984006e6f00003a200000303000003a30000062
:10099400302c000030200000200000001b5b000011
:0409a4004800000007
:020000040000fa
:1009a8000000fa002621ef00f0342c0050098800de
:1009b80071098000f0fc2f00008060000040a0005a
:1009c800700988002e21a9002ec1a9002fe1a800d6
:1009d8009780a8008780a9009a00a8008a00a9002b
:1009e8000080fa00000006000000fa001821ef005d
:1009f800f0c32900e008880001098000f0fc2f00fe
:100a080000806000000988002021a90020c1a900f9
:100a180021e1a8009780a8008780a9000080fa003b
:100a2800000006000000fa000228ef000428ef008a
:100a38000628ef000828ef000080fa0000000600f2
:100a48000200fa00000f78003421ef00f0342c0087
:100a5800c0098800e1098000f0fc2f0000806000d8
:100a6800e00988003c21a9003cc1a9003de1a8009b
:100a78000000000050048000700060000000e000ea
:100a8800fcff32003de1a9008a80a9000080fa003d
:100a9800000006000200fa00000f7800400620005f
:100aa8009e007800808f500001003600ffff37005d
:100ab8003421ef00f0342c00c0098800e1098000df
:100ac800f0fc2f00008060000040a000e0098800d2
:100ad8003c21a9003cc1a9003de1a800000000009c
:100ae80050048000700060000000e000fcff32004d
:100af8003de1a9008a80a9000080fa0000000600f4
:100b08000600fa001140800040062000808f500047
:100b180055003a00204080000000e800204088008e
:100b28000228ef00201680006100600000f0a70096
:100b38000000ea000000e9004f00de0000407800f5
:100b48000080fb0061006000211680000100a10008
:100b580001007000201688002140800064004700d2
:100b680001010700de409000f08220000148780073
:100b780020408000ea0f50003b003a0030408000df
:100b88000000e800304088000428ef0020168000ac
:100b98006400600000f0a7000000ea000000e9001f
:100ba8004f00de00004078000080fb00610060001c
:100bb8004200dd00211680000120a1000100700024
:100bc8002016880031408000c0032000808f50002c
:100bd8001c003a00404080000000e80040408800c7
:100be8000628ef00201680007000600000f0a700c3
:100bf8000000ea000000e9004f00de000040780035
:100c08000080fb00610060004400dd0021168000c8
:100c18000140a100010070002016880040408000bb
:100c2800800078000e007800cf0007009e40780012
:100c380090822000014878009e409000a082200009
:100c480001487800314080000e80e800c6000700a7
:100c5800ae409000c082200001487800be4090005d
:100c6800d0822000014878000080fa0000000600c9
:100c78000200fa00004f7800d6a2a900cbe2a90032
:100c8800e116800000f02f0000806000e016880068
:100c98009e00fb00e016800001007000e01688004e
:100ca800d682a8000000000000000000000000003c
:100cb8000000000000000000d682a900d6a2a8000b
:100cc8000080fa00000006000200fa00004f7800d9
:100cd800d6a2a900cbe2a800e116800000f02f0000
:100ce80000806000e01688009e00fb00e01680008f
:100cf80001007000e0168800d682a80000000000fd
:100d080000000000000000000000000000000000db
:100d1800d682a900cbe2a900d6a2a8000080fa00da
:100d2800000006000000fa00f000200059ff07004c
:100d3800e116800000f02f0000806000e0168800b7
:100d4800d6a2a900cbe2a900d682a900c1168000cc
:100d580000f02f0000806000c0168800d2a2a90011
:100d6800c7e2a900d282a90080c3b300c0ff070070
:100d78005000200047ff070080c3b300bcff0700f6
:100d8800400620002eff070080c3b300b8ff07000d
:100d9800800220002aff070080c3b300b4ff0700c9
:100da8008002200026ff0700c0c0b300b0ff070084
:100db8008002200022ff070060c0b300acff0700dc
:100dc800800220001eff07000080fa0000000600d5
:100dd8000000fa008000eb00c04828009d000700d2
:100de80011002000f04b28009a0007002700070098
:100df8002081200001c1b300120007002a0007006b
:100e0800208120007000400001c1b3000d000700e0
:100e18000080fa00000006000000fa00110020001f
:100e2800f04b28008b0007001f00070020812000de
:100e38007000400001c1b300020007000080fa0002
:100e4800000006000400fa00000f7800214798000f
:100e5800090037001e007800104078001e0fe800d7
:100e680099ff070080022000f5fe07002e40900041
:100e78000040e900204798002e4090000004e00060
:100e8800f4ff3a000080fa00000006000000fa00b3
:100e980000c8b30076ff070080022000e8fe0700c4
:100ea8000080fa00000006000000fa0000ccb30041
:100eb8006fff070080022000e1fe07000080fa00b3
:100ec800000006000000fa0060022000303a8800a6
:100ed800213a8000f0f32f0000806000203a88005b
:100ee800213a800000fe2f0000806000203a880030
:100ef80040a7a9003200200080072000a109200097
:100f0800337420008049780081497800824978004c
:100f180012002000600420007105200023742000c6
:100f280080497800814978008249780000000000f3
:100f3800113a800000002700808060000000230034
:100f4800808f5000faff3a0000000000113a80003c
:100f580000022000008060000000e000fbff32007b
:100f68000080fa00000006000600fa00100798004a
:100f780021079800ae00900030062000808f5000b6
:100f880001003600ffff3700ae009000d0cc2c00e7
:100f98000008b8004308de00004f78001e80fb0000
:100fa80021832000614f78001e0090001e487800c1
:100fb8001e0090000000e800100798002e01900025
:100fc800d0cc2c000010b8004308de006a00b9003d
:100fd8000000780000005100004f78001e80fb00e0
:100fe80021832000614f78001e0090001e48780081
:100ff8000080fa00000006000000fa00004120000e
:10100800c01188003022ef003062a8003222ef00c1
:1010180087c0a90087e0a90097c0a80097e0a800aa
:101028009c40a9003222a90031e2a8003342a8005e
:101038009006200082fe07001028ef008040800004
:101048007040880070408000604088000080fa008e
:10105800000006000600fa00100798002107980013
:101068000000eb00000f78000a0037001e00900017
:101078001e004000904078002e0090002281200041
:101088004400dd001e0040000000410001487800d7
:101098001e0fe8001e007800ef0f5000f3ff360027
:0810a8000080fa0000000600c0
:020000040000fa
:1010b0000c080000060000000000000012080000fc
:1010c0002000000000000000000800000c000000ec
:1010d00000000000320800001000000002000000c4
:1010e00030313200333435003637380039000000f3
:0c10f000000000000000000000000000f4
:020000040000fa
:1010fc000000fa0000f02f00001688000080fa00b3
:10110c00000006000000fa000080eb005019880077
:10111c00d2c2a800d2e2a800d3a2a8000080fa0094
:10112c00000006000000fa0065ff0700f0ff070052
:10113c00fbfe070025ff070039fe070029fe07000c
:10114c0016fe0700abff07006cfe0700feff370022
:020000040000fa
:0200000401f009
:04000c00fbff0000f6
:020000040000fa
:0200000401f009
:040010007dff000070
:020000040000fa
:0200000401f009
:040014007fff00006a
:00000001FF
