:020000040000fa
:080000000002040000000000f2
:020000040000fa
:04000800920400005e
:020000040000fa
:04000c00920400005a
:020000040000fa
:040010009204000056
:020000040000fa
:040014009204000052
:020000040000fa
:04001800920400004e
:020000040000fa
:04001c00920400004a
:020000040000fa
:040020009204000046
:020000040000fa
:040024009204000042
:020000040000fa
:04002800920400003e
:020000040000fa
:04002c00920400003a
:020000040000fa
:040030009204000036
:020000040000fa
:040034009204000032
:020000040000fa
:04003800920400002e
:020000040000fa
:04003c00920400002a
:020000040000fa
:040040009204000026
:020000040000fa
:040044009204000022
:020000040000fa
:04004800920400001e
:020000040000fa
:04004c00920400001a
:020000040000fa
:040050009204000016
:020000040000fa
:040054009204000012
:020000040000fa
:04005800920400000e
:020000040000fa
:04005c00920400000a
:020000040000fa
:040060009204000006
:020000040000fa
:040064009204000002
:020000040000fa
:0400680092040000fe
:020000040000fa
:04006c0092040000fa
:020000040000fa
:0400700092040000f6
:020000040000fa
:0400740092040000f2
:020000040000fa
:0400780092040000ee
:020000040000fa
:04007c0092040000ea
:020000040000fa
:0400800092040000e6
:020000040000fa
:0400840092040000e2
:020000040000fa
:0400880092040000de
:020000040000fa
:04008c0092040000da
:020000040000fa
:0400900092040000d6
:020000040000fa
:0400940092040000d2
:020000040000fa
:040098000804000058
:020000040000fa
:04009c0092040000ca
:020000040000fa
:0400a000c802000092
:020000040000fa
:0400a4003203000023
:020000040000fa
:0400a80092040000be
:020000040000fa
:0400ac0092040000ba
:020000040000fa
:0400b00092040000b6
:020000040000fa
:0400b40092040000b2
:020000040000fa
:0400b80092040000ae
:020000040000fa
:0400bc0092040000aa
:020000040000fa
:0400c00092040000a6
:020000040000fa
:0400c40092040000a2
:020000040000fa
:0400c800920400009e
:020000040000fa
:0400cc00920400009a
:020000040000fa
:0400d0009204000096
:020000040000fa
:0400d4009204000092
:020000040000fa
:0400d800920400008e
:020000040000fa
:0400dc00920400008a
:020000040000fa
:0400e0009204000086
:020000040000fa
:0400e4009204000082
:020000040000fa
:0400e800f60300001b
:020000040000fa
:0400ec00920400007a
:020000040000fa
:0400f0009204000076
:020000040000fa
:0400f4009204000072
:020000040000fa
:0400f800920400006e
:020000040000fa
:0400fc00920400006a
:020000040000fa
:040100009204000065
:020000040000fa
:040104009204000061
:020000040000fa
:04010800920400005d
:020000040000fa
:04010c009204000059
:020000040000fa
:040110009204000055
:020000040000fa
:040114009204000051
:020000040000fa
:04011800920400004d
:020000040000fa
:04011c009204000049
:020000040000fa
:040120009204000045
:020000040000fa
:040124009204000041
:020000040000fa
:04012800920400003d
:020000040000fa
:04012c009204000039
:020000040000fa
:040130009204000035
:020000040000fa
:040134009204000031
:020000040000fa
:04013800920400002d
:020000040000fa
:04013c009204000029
:020000040000fa
:040140009204000025
:020000040000fa
:040144009204000021
:020000040000fa
:04020800920400005c
:020000040000fa
:04020c009204000058
:020000040000fa
:040210009204000054
:020000040000fa
:040214009204000050
:020000040000fa
:04021800920400004c
:020000040000fa
:04021c009204000048
:020000040000fa
:040220009204000044
:020000040000fa
:040224009204000040
:020000040000fa
:04022800920400003c
:020000040000fa
:04022c009204000038
:020000040000fa
:040230009204000034
:020000040000fa
:040234009204000030
:020000040000fa
:04023800920400002c
:020000040000fa
:04023c009204000028
:020000040000fa
:040240009204000024
:020000040000fa
:040244009204000020
:020000040000fa
:04024800920400001c
:020000040000fa
:04024c009204000018
:020000040000fa
:040250009204000014
:020000040000fa
:040254009204000010
:020000040000fa
:04025800920400000c
:020000040000fa
:04025c009204000008
:020000040000fa
:040260009204000004
:020000040000fa
:040264009204000000
:020000040000fa
:0402680092040000fc
:020000040000fa
:04026c0092040000f8
:020000040000fa
:0402700092040000f4
:020000040000fa
:0402740092040000f0
:020000040000fa
:0402780092040000ec
:020000040000fa
:04027c0092040000e8
:020000040000fa
:0402800092040000e4
:020000040000fa
:0402840092040000e0
:020000040000fa
:0402880092040000dc
:020000040000fa
:04028c0092040000d8
:020000040000fa
:0402900092040000d4
:020000040000fa
:0402940092040000d0
:020000040000fa
:0402980092040000cc
:020000040000fa
:04029c0092040000c8
:020000040000fa
:0402a00092040000c4
:020000040000fa
:0402a40092040000c0
:020000040000fa
:0402a80092040000bc
:020000040000fa
:0402ac0092040000b8
:020000040000fa
:0402b00092040000b4
:020000040000fa
:0402b40092040000b0
:020000040000fa
:0402b80092040000ac
:020000040000fa
:0402bc0092040000a8
:020000040000fa
:0402c00092040000a4
:020000040000fa
:0402c40092040000a0
:020000040000fa
:0402c800920400009c
:020000040000fa
:0402cc009204000098
:020000040000fa
:0402d0009204000094
:020000040000fa
:0402d4009204000090
:020000040000fa
:0402d800920400008c
:020000040000fa
:0402dc009204000088
:020000040000fa
:0402e0009204000084
:020000040000fa
:0402e4009204000080
:020000040000fa
:0402e800920400007c
:020000040000fa
:0402ec009204000078
:020000040000fa
:0402f0009204000074
:020000040000fa
:0402f4009204000070
:020000040000fa
:0402f800920400006c
:020000040000fa
:0402fc009204000068
:020000040000fa
:040300009204000063
:020000040000fa
:04030400920400005f
:020000040000fa
:04030800920400005b
:020000040000fa
:04030c009204000057
:020000040000fa
:040310009204000053
:020000040000fa
:04031400920400004f
:020000040000fa
:04031800920400004b
:020000040000fa
:04031c009204000047
:020000040000fa
:040320009204000043
:020000040000fa
:04032400920400003f
:020000040000fa
:04032800920400003b
:020000040000fa
:04032c009204000037
:020000040000fa
:040330009204000033
:020000040000fa
:04033400920400002f
:020000040000fa
:04033800920400002b
:020000040000fa
:04033c009204000027
:020000040000fa
:040340009204000023
:020000040000fa
:04034400920400001f
:020000040000fa
:10040000af8420000e7f24000e0188000000000051
:10041000000020000000e000020032000001200087
:100420002002880014000700400107000000e000df
:1004300003003a0040a02000010020000200370025
:100440000000200001002000810f70000100320038
:1004500014000700000020000000e000020032004d
:100460000000020000000000ca09020000000000b5
:100470000040da000000fe004440a900e003200034
:100480000000e0000300320000002000a00188000e
:100490004440a800000006008a1f78008b1f7800e7
:1004a0000000060091018800800478000000eb0045
:1004b0001a003700e284440032a0b4009905ba0063
:1004c000e284440032a0b4009906ba00e2844400f9
:1004d00032a0b4000006eb00476fde00fd07b2005b
:1004e000636ce10003003a00ebff07000000eb0043
:1004f0000a003700606ce10004003a00005deb0088
:100500008b05e900fdff3e00040037006168e10053
:10051000010032000086eb000b00070019c7ba008b
:100520001905ba000e04e00003003a000a00e000da
:10053000e0ff3a0000000600fe07b2009e018800be
:100540008a047800f5ff3700395dba008b05e900b1
:100550000c003200295dba008b05e900080032006a
:100560000c00e00003003a00e284440032a0b40032
:10057000f5ff370019ddba008b05e900faff3a00f4
:100580008904e800e184440032a0b40000000600c1
:100590003600f800809fbe00829fbe00849fbe0090
:1005a000869fbe000200fa00b0118000004f780064
:1005b0001e00fb0001052000810f50001c003200ce
:1005c00001052000810f500007003c00310420008d
:1005d000810f50001400320091042000810f500060
:1005e0000b0032001400370091062000810f5000ec
:1005f0000700320001072000810f50000c0032007c
:1006000031062000810f5000070032000a00370039
:100610001d01070011002000f04c28009303070083
:1006200052030700040037002fe1a8000200370042
:100630002fe1a900000000009e40780050832000b8
:100640000148780087c0a9000080fa004f03be006f
:100650004f02be004f01be004f00be003600f90041
:1006600000400600809fbe00821f78000200fa0052
:1006700060408000e10f500021003200e10f500087
:1006800011003900e20f500037003200e30f500034
:1006900048003a0070408000214f2800e140780077
:1006a0008100fb00a11188000000e8007040880074
:1006b00070408000e40f500040003a000e28ef0028
:1006c0000c28ef004400370070408000714f280074
:1006d000e14078008100fb00a11188000000e800e3
:1006e0007040880070408000e30f500035003a00f1
:1006f0000e28ef0010002000604088003600370010
:100700008140800070408000c408dd00808040008f
:1007100062812000e2c078008180fb00a111880086
:100720000000e8007040880070408000f00f50002a
:1007300026003a000e28ef00804080000000e8000c
:100740008040880080408000e20f500003003a00a3
:100750000c28ef001028ef001f00370020002000b9
:10076000604088001c00370070408000004f780017
:100770000000e800704088001e4078000004e0009f
:1007800003003a00d0002000a011880012003700ba
:100790001e407800e14f50000e003a00a0002000fb
:1007a000a011880010002000604088000e28ef0093
:1007b00009003700000000000700370000000000bb
:1007c00005003700000000000300370000000000b3
:1007d000010037000000000087e0a9000080fa0057
:1007e0004f0178004f00be0000400600801f7800d7
:1007f0000000fa00104080006a00400010408800ad
:100800008a00a9000080fa004f007800004006002e
:100810003600f800809fbe00829fbe00849fbe000d
:10082000869fbe000000fa0000c8bf000080fb00e9
:10083000e10f500010003200e10f500003003c00b7
:100840000000e000060032002e003700e20f5000ea
:1008500016003200e30f50001a0032002900370062
:1008600000c8b300ad0107000a28ef0010c0b300b4
:1008700000e8b7002300370050408000618120006d
:1008800061407800b6010700504080000000e80099
:100890005040880050408000f00f500016003a0091
:1008a00020c0b30000e8b7001600370000ccb3004a
:1008b0009a0107000a28ef0030c0b30000e8b70033
:1008c000100037005040800070004000618120001f
:1008d00061407800a2010700504080000000e8005d
:1008e0005040880050408000f00f500004003a0053
:1008f0000068ef000300370000000000010037002f
:10090000000000008780a9000080fa004f03be00ad
:100910004f02be004f01be004f00be003600f9007e
:10092000004006000040da000000fe000000050064
:100930006022b800060220000000d0008180d200b2
:100940000482d2008582d2000000a0000202520080
:1009500083825a00030031000202420083824a006f
:100960000000a1000603e900f3ff3a0000000600c2
:0c097000efff07000400be0000000600be
:020000040000fa
:10097c002d200000445300004520000032300000c0
:10098c00323200002d320000332000002d2d0000eb
:10099c0000430000726f00006e6f00003a200000f0
:1009ac00303000003a300000302c000030200000c5
:1009bc0020000000503a00002030000030300000d1
:1009cc0030200000205400003a200000303000009d
:1009dc0030300000000000001b5b0000324a0000b9
:0c09ec00001b00005b4800000000000041
:020000040000fa
:1009f8000000fa003c21a9003cc1a9000080fa00cf
:100a0800000006000000fa002621ef00f0342c0058
:100a18005009880071098000f0fc2f0000806000f8
:100a28000040a000700988002e21a9002ec1a9004d
:100a38002fe1a8009a00a8008a00a9000080fa0007
:100a4800000006000000fa001821ef00f0c329009a
:100a5800e008880001098000f0fc2f000080600099
:100a6800000988002021a90020c1a90021e1a800cf
:100a78009780a8008780a9000080fa00000006007f
:100a88000000fa000228ef000428ef000628ef0013
:100a98000828ef002621ef000080fa000000060079
:100aa8000400fa001007980010002000000f7800da
:100ab800e1098000f0fc2f0000806000e009880058
:100ac8001e0078000080fa00000006000600fa0008
:100ad800200798003421ef00ae009000800220002b
:100ae8000088b90000007800000f78001e00780028
:100af800ebff0700100798009e0078001e0090008a
:100b080000017800110009008280d8000000e90087
:100b1800c00988003de1a8000000000050048000e2
:100b2800700060000000e000fcff32003de1a90019
:100b38008a80a9000080fa00000006000600fa007a
:100b480020079800ae00900040062000808f5000db
:100b580001003600ffff37003421ef00ae0090009f
:100b680000c429000088b90000007800000f780050
:100b78001e007800caff0700100798009e00780042
:100b88001e00900000017800110009008280d80042
:100b98000000e900c00988003de1a800000000004d
:100ba80050048000700060000000e000fcff32008c
:100bb8003de1a9008a80a9000080fa000000060033
:100bc8000600fa001140800040062000808f500087
:100bd80055003a00204080000000e80020408800ce
:100be8000228ef00201680006100600000f0a700d6
:100bf8000000ea000000e9004f00de000040780035
:100c08000080fb0061006000211680000100a10047
:100c18000100700020168800214080006400470011
:100c280043000700de409000308320000148780030
:100c380020408000ea0f50003b003a00304080001e
:100c48000000e800304088000428ef0020168000eb
:100c58006400600000f0a7000000ea000000e9005e
:100c68004f00de00004078000080fb00610060005b
:100c78004200dd00211680000120a1000100700063
:100c88002016880031408000c0032000808f50006b
:100c98001c003a00404080000000e8004040880006
:100ca8000628ef00201680007000600000f0a70002
:100cb8000000ea000000e9004f00de000040780074
:100cc8000080fb00610060004400dd002116800008
:100cd8000140a100010070002016880040408000fb
:100ce800800078000e007800110007009e40780010
:100cf800d0822000014878009e409000e0822000c9
:100d080001487800314080000e80e80008000700a4
:100d1800ae4090000083200001487800be4090005b
:100d280010832000014878000080fa0000000600c7
:100d38000600fa001007980021079800ae009000fe
:100d480030062000808f500001003600ffff37007a
:100d5800ae009000d0cc2c000008b8004308de009c
:100d6800004f78001e80fb0061832000614f7800ef
:100d78001e0090001e4878001e0090000000e80049
:100d8800100798002e019000d0cc2c000010b8005d
:100d98004308de006a00b900000078000000510036
:100da800004f78001e80fb0061832000614f7800af
:100db8001e0090001e4878000080fa00000006001f
:100dc8000800fa00100798002207980033079800d7
:100dd8002e019000be019000f03f2000010020008d
:100de800800f5100818f590001003600ffff370046
:100df8002e009000004f78002e009000be0090005a
:100e0800823e200003002000c7fe0700004f780044
:100e18001e80fb0061832000614f78001e00900057
:100e28001e4878001e0090000000e8001007980097
:100e38002e009000be009000420620000300200013
:100e4800b9fe0700004f78001e81fb00d0cc2c00b3
:100e58000010b8004308de006a00b90000007800fe
:100e680000005100004f78001e80fb0061832000c5
:100e7800614f78001e0090001e4878001e00900008
:100e88000000e800100798002e009000be009000b7
:100e9800a200200003002000a3fe0700004f7800f6
:100ea8001e81fb00d0cc2c000010b8004308de00e7
:100eb8006a00b9000000780000005100004f780077
:100ec8001e80fb0061832000614f78001e009000a7
:100ed8001e4878001e0090000000e80010079800e7
:100ee8002e009000be009000a20020000300200009
:100ef8009dfe0700004f78001e80fb0061832000e4
:100f0800614f78001e0090001e4878000080fa00ab
:100f1800000006000200fa00004f7800d6a2a900df
:100f2800cbe2a900e116800000f02f0000806000ed
:100f3800e01688009e00fb00e016800001007000ab
:100f4800e0168800d682a800d682a900d6a2a800fa
:100f58000080fa00000006000200fa00004f780046
:100f6800d6a2a900cbe2a800e116800000f02f006d
:100f780000806000e01688009e00fb00e0168000fc
:100f880001007000e0168800d682a800d682a90069
:100f9800cbe2a900d6a2a8000080fa000000060053
:100fa8000000fa00f0002000e4fe0700e1168000cf
:100fb80000f02f0000806000e0168800d6a2a9008b
:100fc800cbe2a900d682a900c116800000f02f004c
:100fd80000806000c0168800d2a2a900c7e2a9005c
:100fe800d282a90080c3b300caff070050002000c6
:100ff800d2fe070080c3b300c6ff070040062000ea
:10100800b2fe070080c3b300c2ff070080022000c1
:10101800aefe070080c3b300beff070080022000b9
:10102800aafe0700c0c0b300baff07008002200074
:10103800a6fe070060c0b300b6ff070080022000cc
:10104800a2fe07000080fa00000006000400fa0073
:10105800000f780021479800090037001e0078002b
:10106800104078001e0fe800bbff07008002200038
:1010780096fe07002e4090000040e90020479800a7
:101088002e4090000004e000f4ff3a000080fa00cf
:10109800000006000000fa0000c8b3009dff07002a
:1010a8008002200089fe07000080fa000000060088
:1010b8000000fa0000ccb30096ff07008002200071
:1010c80082fe07000080fa00000006000000fa0017
:1010d8002023ef0001198000000e2000010070009d
:1010e800001988002223ef002423ef002119800033
:1010f80000f02100010070002019880030c0b30002
:1011080024e3b7003223ef002623ef002823ef0063
:101118002e23ef003023ef000080eb0050198800e9
:101128000080eb00601988002ca3a9002c83a9007b
:1011380085a0a90095a0a90021e3a8000080fa00d5
:10114800000006000000fa002023a8000080fa0032
:10115800000006000000fa00001880008000eb0084
:1011680090408800a140880090408000a140800005
:101178000001be006084200011ff070040198000b4
:10118800004078007f4060000080fb00e40f5000c2
:1011980013003200e50f500023003a00608420005d
:1011a80090407800908120000148780070842000e9
:1011b80090407800a08120000148780080842000b9
:1011c80090407800b0812000014878009084200089
:1011d80090407800c0812000014878001300370053
:1011e8006084200090407800208220000148780028
:1011f80070842000904078003082200001487800f8
:1012080080842000904078004082200001487800c7
:101218009084200090407800508220000148780097
:101228000000000001003700000000000080fa0004
:10123800000006000000fa004119800000fe2f009f
:10124800008060000020a000401988000080fa009b
:10125800000006000000fa004119800000fe2f007f
:10126800008060005000b300401988000080fa0038
:10127800000006000000fa0060022000303a8800f2
:10128800213a8000f0f32f0000806000203a8800a7
:10129800213a800000fe2f0000806000203a88007c
:1012a80040a7a9003200200080072000a1092000e3
:1012b8003374200080497800814978008249780099
:1012c8001200200060042000710520002374200013
:1012d8008049780081497800824978000000000040
:1012e800113a800000002700808060000000230081
:1012f800808f5000faff3a0000000000113a800089
:1013080000022000008060000000e000fbff3200c7
:101318000080fa00000006000000fa0000412000ea
:10132800c01188003022ef003062a8003222ef009e
:1013380087c0a90087e0a90097c0a80097e0a80087
:101348009c40a9003222a90031e2a8003342a8003b
:1013580090062000ddfd0700020007000080fa006b
:10136800000006000000fa0087e0a9001028ef003e
:101378008040800070408800300020006040880075
:101388003422ef000080fa00000006000200fa0094
:10139800b8ff070002ff07004cff0700b8fd070071
:1013a800a8fd07008000eb00004e28002d00070074
:1013b80011002000f04c28002a0007000000eb0074
:1013c800000f78001e00a2001e0078000000e00058
:1013d800020032009fff07000100370095ff070059
:1013e80058ff07000000000000198000610060003d
:1013f8000000e000fcff320056ff0700f1ff370055
:020000040000fa
:101408004608000004000000000000001208000068
:1014180004000000000000000c08000006000000a6
:101428000000000016080000200000000000000076
:10143800000800000c000000000000003608000052
:101448001000000002000000303132003334350053
:1014580036373800390000000000000000000000a6
:041468000000000080
:020000040000fa
:10146c000600fa0010079800210798000000eb0016
:10147c00000f78000a0037001e0090001e0040008c
:10148c00904078002e009000628120004400dd0026
:10149c001e00400000004100014878001e0fe800cb
:1014ac001e007800ef0f5000f3ff36000080fa00aa
:1014bc00000006000000fa0000f02f000016880063
:1014cc000080fa00000006000000fa000080eb002b
:1014dc0050198800d2c2a800d2e2a800d3a2a8005a
:0814ec000080fa000000060078
:020000040000fa
:0200000401f009
:04000c00fbff0000f6
:020000040000fa
:0200000401f009
:040010007dff000070
:020000040000fa
:0200000401f009
:040014007fff00006a
:00000001FF
